:020000040800F2
:100000000080002051E70008DDE70008FDDC000863
:1000100000000000000000000000000000000000E0
:100020000000000000000000000000001D040108A6
:100030000000000000000000C9040108F1DC000815
:10004000DDE70008DDE70008DDE70008DDE7000880
:10005000DDE70008DDE70008DDE70008DDE7000870
:10006000DDE7000845DD000851DD000891DD0008EE
:10007000DDE70008DDE70008DDE70008DDE7000850
:10008000DDE70008DDE70008DDE70008DDE7000840
:10009000DDE70008DDE70008DDE70008DDE7000830
:1000A000DDE70008DDE70008DDE7000801DD000806
:0C00B00011DD000821DD0008DDE700087C
:1000BC0010B5064C2378002B07D1054B002B02D032
:1000CC00044800E000BF0123237010BD98020020FB
:1000DC0000000000A8840108044B10B5002B03D0CD
:1000EC000349044800E000BF10BDC04600000000FA
:1000FC009C020020A884010802780B78002A03D007
:10010C00013001319A42F7D0D01A70470023C25CFB
:10011C000133002AFBD1581E7047000002B471460F
:10012C0049084900095C49008E4402BC7047C0462E
:10013C0003B47146490840004900095E49008E44E9
:10014C0003BC7047002243088B4274D303098B42D3
:10015C005FD3030A8B4244D3030B8B4228D3030C8B
:10016C008B420DD3FF22090212BA030C8B4202D32D
:10017C001212090265D0030B8B4219D300E0090A55
:10018C00C30B8B4201D3CB03C01A5241830B8B425E
:10019C0001D38B03C01A5241430B8B4201D34B0347
:1001AC00C01A5241030B8B4201D30B03C01A5241AC
:1001BC00C30A8B4201D3CB02C01A5241830A8B4231
:1001CC0001D38B02C01A5241430A8B4201D34B021A
:1001DC00C01A5241030A8B4201D30B02C01A52417E
:1001EC00CDD2C3098B4201D3CB01C01A5241830932
:1001FC008B4201D38B01C01A524143098B4201D36C
:10020C004B01C01A524103098B4201D30B01C01A96
:10021C005241C3088B4201D3CB00C01A5241830810
:10022C008B4201D38B00C01A524143088B4201D33D
:10023C004B00C01A5241411A00D20146524110469D
:10024C007047FFE701B5002000F0F0F802BDC04692
:10025C000029F7D076E7704703460B437FD4002282
:10026C0043088B4274D303098B425FD3030A8B423E
:10027C0044D3030B8B4228D3030C8B420DD3FF22A8
:10028C00090212BA030C8B4202D31212090265D076
:10029C00030B8B4219D300E0090AC30B8B4201D329
:1002AC00CB03C01A5241830B8B4201D38B03C01A70
:1002BC005241430B8B4201D34B03C01A5241030BE7
:1002CC008B4201D30B03C01A5241C30A8B4201D398
:1002DC00CB02C01A5241830A8B4201D38B02C01A43
:1002EC005241430A8B4201D34B02C01A5241030ABA
:1002FC008B4201D30B02C01A5241CDD2C3098B429F
:10030C0001D3CB01C01A524183098B4201D38B011B
:10031C00C01A524143098B4201D34B01C01A5241BE
:10032C0003098B4201D30B01C01A5241C3088B4203
:10033C0001D3CB00C01A524183088B4201D38B00EE
:10034C00C01A524143088B4201D34B00C01A524190
:10035C00411A00D201465241104670475DE0CA0F67
:10036C0000D04942031000D34042534000229C4627
:10037C0003098B422DD3030A8B4212D3FC22890131
:10038C0012BA030A8B420CD3890192118B4208D307
:10039C00890192118B4204D389013AD0921100E069
:1003AC008909C3098B4201D3CB01C01A524183097D
:1003BC008B4201D38B01C01A524143098B4201D3AA
:1003CC004B01C01A524103098B4201D30B01C01AD5
:1003DC005241C3088B4201D3CB00C01A524183084F
:1003EC008B4201D38B00C01A5241D9D243088B42A5
:1003FC0001D34B00C01A5241411A00D20146634648
:10040C0052415B10104601D34042002B00D54942AB
:10041C00704763465B1000D3404201B5002000F0EA
:10042C0005F802BD0029F8D016E770477047C046A2
:10043C008446101C62468C46191C634600E0C0467C
:10044C001FB501F0B5FD002801D40021C8421FBD25
:10045C0010B501F0FFFC4042013010BD10B501F0A9
:10046C00A7FD002801DB002010BD012010BDC046F7
:10047C0010B501F09DFD002801DD002010BD01200C
:10048C0010BDC04610B501F021FD002801DC002094
:10049C0010BD012010BDC04610B501F017FD00289D
:1004AC0001DA002010BD012010BDC0468446081C96
:1004BC006146FFE71FB500F0F3FA002801D40021D4
:1004CC00C8421FBD10B500F077FA4042013010BD94
:1004DC0010B500F0E5FA002801DB002010BD01206A
:1004EC0010BDC04610B500F0DBFA002801DD00207D
:1004FC0010BD012010BDC04610B500F085FA0028D3
:10050C0001DC002010BD012010BDC04610B500F06C
:10051C007BFA002801DA002010BD012010BDC04676
:10052C00F0B515042D0C0F0001002E00C6468446B4
:10053C000004140C000C090C46434D43604361430A
:10054C004019340C241800B5A54203D98020400270
:10055C0080464144250C6D18614659437A4330045A
:10056C0049192404000C2018891880BCB846F0BD29
:10057C009E2110B5C905041CFFF7C8FF002803D144
:10058C00201C00F0B9FD10BD9E21201CC90500F0F7
:10059C00EBFB00F0B1FD80231B069C466044F2E7A8
:1005AC0070B500220C4B04000D00FFF775FF0028FE
:1005BC0004D12000290002F087FB70BD064B0022FD
:1005CC002000290001F0D0FF02F07EFB80231B06E7
:1005DC009C466044F1E7C0460000E04170B5050060
:1005EC000C000022002328002100FFF737FF002811
:1005FC0008D12800210000F00FF802000B001000B9
:10060C00190070BD80231B06E118280000F004F8C7
:10061C00002342428B41F2E770B500220B4B0D00D8
:10062C00040001F035FDFFF7BBFF060002F0B2FB42
:10063C000022074B01F02CFD02000B0020002900CA
:10064C0001F092FFFFF7ACFF310070BD0000F03DF0
:10065C000000F04170B50600080002F06BFB0022B0
:10066C00064B01F015FD0D000400300002F092FB6A
:10067C002B00220000F09CFD70BDC0460000F04134
:10068C00F0B54646D6464F464D024202C0B5520A18
:10069C006E0A4700B0463F0E4E00C40FD000944681
:1006AC003B008246360EC90FAD098C426DD0B81B8B
:1006BC00814600284DDD002E00D188E0FF2F5AD056
:1006CC008023DB041D434B4601221B2B0ADC2B0031
:1006DC004A464946D3402022521A95402A00551EBC
:1006EC00AA411A4353469A1A530100D4B9E0920115
:1006FC009609300002F044FC05388640874200DD44
:10070C00D4E03300C71B20200137FB40C71BBE4081
:10071C003200561EB24100271A43530704D00F2350
:10072C001340042B00D00432530100D49CE07B1CFA
:10073C00FE2F00D19AE09201520A9446DBB2D80502
:10074C006346E40718432043E0BCBA46B146A846CA
:10075C00F0BD002849D0F31B002F00D0B6E0524664
:10076C00002A60D0013B002B00D1FCE0FF2E00D012
:10077C00B4E00C004246002A78D08020C00310431D
:10078C004202530A9C46FF23D9E7B91B002971DDAD
:10079C00002E3FD0FF2FEED08023DB041D4301221F
:1007AC001B2907DC2A002023CA40591A8D406B1ED6
:1007BC009D412A435244530153D50137FF2F55D045
:1007CC0001237B49134052080A401A43A5E7002D28
:1007DC002CD001235B429C46E1444B46002B00D1BC
:1007EC00ADE0FF2F00D06EE7C5E7FE207E1C304247
:1007FC0060D1002F00D093E05246002A00D1B6E021
:10080C00002D9CD0521B500100D4C3E053460C0069
:10081C00EA1A82E7002D09D00139002900D18BE0BA
:10082C00FF2FBCD1A7E70C0042463700FF2FA2D008
:10083C005202530A9C46FBB281E7FE210137394232
:10084C0065D1002B7ED1002800D1AAE0002D00D16B
:10085C0075E72A0052440027530102D5554B013746
:10086C001A40530700D05AE7D208DFE70022FF23D3
:10087C00944664E70029E0D0F31B002F3ED0FF2EF6
:10088C0000D177E780220100D20411438A4601226D
:10089C001B2B08DC524620215046DA40CB1A9840DC
:1008AC00431E984102433700521984E7414A3F1ACC
:1008BC00324032E753465E1B73012DD4002E00D01C
:1008CC0017E7002200240023944638E7FF2E00D1BE
:1008DC004FE780225046D2041043824601221B2B44
:1008EC0008DC524620245046DA40E31A9840431E56
:1008FC00984102430C003700AA1AF5E6002893D061
:10090C00013B002B4FD0FF2EC1D1424633E7FF2FC6
:10091C00ACD055446A08A4E753460C00EE1AE8E63E
:10092C005346002B28D1002D00D022E78023DB0377
:10093C009C460024FF2302E72A0052443BE753461F
:10094C005A1BD1E6002800D114E7002D00D112E784
:10095C008023DB031A4200D10DE74146194200D037
:10096C0009E7424607E70C003700AA1ABCE6002D3F
:10097C0013D00C00C446E2E6002D00D1FBE6802328
:10098C00DB031A4200D1F6E64046184200D0F2E6EC
:10099C000C00EFE6002A00D063E700220024944606
:1009AC00CDE6C446CBE62A003700524403E7C046E6
:1009BC00FFFFFF7DFFFFFFFB70B542004E024C00B6
:1009CC0045026D0A120EC30F760A240EC90FFF2AB8
:1009DC000FD0FF2C11D00120A24200D070BDB54227
:1009EC00FCD18B420DD0002AF8D12800451EA8411D
:1009FC00F4E70120002DF1D1EBE70120002EEDD121
:100A0C00E9E70020EAE7C046F0B5420046024D0295
:100A1C004C00C30F760A120E6D0A240EC80FFF2A63
:100A2C001FD0FF2C10D0002A1FD171427141002C15
:100A3C0001D1002D1ED000290ED183421ED00221DF
:100A4C00581E08400138F0BD002D26D1002AF4D1E3
:100A5C00714271410029F0D00028F4D101204042AC
:100A6C00F1E7002E19D1FF2CEED0002CE5D1002D92
:100A7C00E3D1E4E70020002EE5D0E0E7A24205DC5C
:100A8C00EADBAE4202D8E7D30020DCE74142414129
:100A9C004842022108400138D5E702204042D2E703
:100AAC00F0B5420046024D024C00C30F760A120EFE
:100ABC006D0A240EC80FFF2A0DD0FF2C0FD0002A70
:100ACC0023D171427141002C0FD1002D0DD100208A
:100ADC00002E14D00DE0002E10D1FF2C15D1002DBE
:100AEC000CD1002A03D171427141002908D18342F3
:100AFC0010D00221581E0840013800E00220F0BD41
:100B0C000028FCD101204042F9E7002CEFD1002D48
:100B1C00EDD1EEE7A24205DCF2DBAE4202D8EFD318
:100B2C000020ECE741424141484202210840013893
:100B3C00E5E7C046F8B557464E464546DE46440204
:100B4C00E0B545000F1C640A2D0EC60F002D47D0D2
:100B5C00FF2D4DD0002380209A469B46E400C00414
:100B6C0004437F3D7802430A99467A00FB0F98466E
:100B7C00120E4B4644D0FF2A11D0D8008023DB0440
:100B8C000343994600207F3AAD18474653467740B9
:100B9C00691C0F2B3FD8724A9B00D3589F46FF35D8
:100BAC00002B00D079E0524602231A4392460220D1
:100BBC00EBE747464C4683465B46022B28D0032B7B
:100BCC0000D1C6E0012B4FD100200024C005FF0747
:100BDC0020433843F0BCBB46B246A946A046F8BDFC
:100BEC00002C71D104239A46033B00259B46B9E7A0
:100BFC00002C63D108239A46063BFF259B46B1E7A0
:100C0C00002B50D1524601331A4392460120BCE7C7
:100C1C00FF200024DAE74846260C2404220C0404A6
:100C2C00240C4B4620001B0C504374435A435E4328
:100C3C001219030C9B189C4203D980225202944631
:100C4C00664400041A04000C12189401601E8441BE
:100C5C001B0C920E9B1914439B011C431B0172D558
:100C6C000120630804401C4308007F3000283CDD51
:100C7C00630704D00F232340042B00D0043423013A
:100C8C0003D580310800374B1C40FE28C0DCA40182
:100C9C00640AC0B29AE737008EE7524603231A4320
:100CAC009246032071E7484602F06AF94A46431F10
:100CBC009A402D1A91460020763D66E70C239A4601
:100CCC00093BFF259B464DE7200002F059F976259C
:100CDC00431F9C4000236D429A469B462D1A41E7C8
:100CEC0080240027FF20E40370E701231B1A1B2B31
:100CFC0000DD69E79E3120008C40D840631E9C418A
:100D0C000443630704D00F232340042B00D0043486
:100D1C0063011AD50120002458E78020C003044247
:100D2C0009D04B46034206D14C4604436402474665
:100D3C00FF20640A4AE78020C003044364023700A2
:100D4C00FF20640A42E729008EE7A4010020640A10
:100D5C003CE78020C00304436402FF20640A35E7AB
:100D6C00D0840108FFFFFFF7F0B54646D6464F4644
:100D7C0043025B0ADA0094464A02C0B54400560AA4
:100D8C00051CB046240E4E0092091F00200092460E
:100D9C00ED0F360EC90FFF2E00D17FE0012251401E
:100DAC008D4251D0A21B9146002A00DC7EE0002E21
:100DBC0000D199E0FF2C00D18CE080235246DB045B
:100DCC001A4392464A4601231B2A08DC534620212B
:100DDC00D340891A52468A40511E8A4113436246B7
:100DEC00D31A5A0100D4F3E09B019E09300002F0A3
:100DFC00C7F805388640844200DDF7E03200041B5A
:100E0C0020200134E240041BA64033005E1EB34197
:100E1C00002413435A0704D00F221A40042A00D08E
:100E2C0004335A0100D4D6E0621CFE2C00D1DAE067
:100E3C009B015F0AD0B2C0053843ED072843E0BCE4
:100E4C00BA46B146A846F0BDA21B9146002A63DD06
:100E5C00002E00D199E0FF2C3CD080235246DB04BD
:100E6C001A4392464A4601231B2A08DC534620218A
:100E7C00D340891A52468A40511E8A411343634417
:100E8C005A0100D4A4E00134FF2C00D1ABE00122C4
:100E9C0097491A405B080B401343BBE7002A32D03A
:100EAC008D4235D0FF2252429146A1444A46002A37
:100EBC0051D0301B002C00D09CE06346002B00D19D
:100ECC00DFE00138002800D1F7E0FF2E00D099E0D8
:100EDC000D004346002B00D185E08027FF031F4304
:100EEC007F02FF207F0AA6E75246002A74D0012217
:100EFC0052429046C1444A46002A00D1C8E0FF2C19
:100F0C0000D05FE7E6E701225140A94200D049E753
:100F1C00FF2252429146A1444A46002A43D0311B3B
:100F2C00002C00D18CE0FF2E00D192E08023624691
:100F3C00DB041A43944601231B2909DC2020634659
:100F4C006246CB40411A8A401100481E81410B4336
:100F5C003400534494E7FE22661C324264D1002CC8
:100F6C0000D082E06346002B00D1ABE05346002B4F
:100F7C0000D160E7634652469B1A5A0100D4AAE09E
:100F8C00634652460D00D31A44E75246002A23D03A
:100F9C00012252429046C1444A46002A75D0FF2C89
:100FAC0000D05FE796E7FE260134264253D1002895
:100FBC0072D16346002B00D193E05346002B00D135
:100FCC0039E7634400245A0102D54A4A01341340DC
:100FDC005A0700D020E7DB08FF2C00D17AE75B0230
:100FEC005F0AE0B227E7FF20002724E7414B241AD1
:100FFC0033400FE7FF2E00D16AE780236246DB0403
:10100C001A43944601231B2809DC202463466246BC
:10101C00C340201A82401000441EA0410343524694
:10102C000D003400D31ADCE6634652469E1A730157
:10103C0017D4002E00D0D9E6002500200027FAE6B0
:10104C006346002B44D0013900294CD0FF2E00D030
:10105C0071E743463EE7FF2CC5D052466244530825
:10106C00B6E763460D00D61AC0E66246002A16D1D2
:10107C005346002B00D02BE780270025FF20FF03D1
:10108C00D9E60D0043463400A6E753466344F7E621
:10109C00634652469B1AA4E66246002AD9D05246B1
:1010AC00002A00D116E78022D203134200D111E7A7
:1010BC004046104200D00DE70AE752460D003400BE
:1010CC00D31A8EE65346002B08D00D004746B2E6E5
:1010DC004346340080E7002B00D079E70025002739
:1010EC00A9E64746A7E6534634006344C8E6C04623
:1010FC00FFFFFF7DFFFFFFFB41024200C30F490AC8
:10110C000020120E7E2A03D99D2A02D9094A98186A
:10111C007047802000040143952A07DC9620821A30
:10112C00D1404842002BF3D10800F1E7963A9140A8
:10113C00F7E7C046FFFFFF7F70B5051E0ED001F02C
:10114C001FFF9E2304001B1A962B0CDC082801DDC4
:10115C00083CA5406D026D0AD8B201E000200025C4
:10116C00C005284370BD992B09DD020029001B32F4
:10117C0091404A1E91410522121AD5400D43052C6F
:10118C0001DD621F95402900084E31406A0709D0E5
:10119C000F202840042805D004314A0102D59F2392
:1011AC0031401B1B89014D0AD8B2D9E7FFFFFFFB69
:1011BC00F0B54F46D64646460D0001001800C0B5A6
:1011CC0017002B035A0A4B0F1343CA009146020314
:1011DC006E004100520AEC0F7D0F1543760D490D40
:1011EC00C00F8246AC46FF00721A844200D198E0D0
:1011FC00002A00DC81E0002900D1B6E0C9498E420A
:10120C0000D172E180212800090408438446382A61
:10121C0000DD5EE11F2A00DDEEE12020390065468D
:10122C00801A8740D14085400D4339004F1EB9418B
:10123C006746D7402943DB1B4A46551AA9458941C5
:10124C0049425B1A984643461B0200D4CCE0434605
:10125C005B025B0A98464346002B00D12CE14046CA
:10126C0001F08EFE01000839202228004346521A54
:10127C008B40D0408D4003438E4200DD17E18E1B26
:10128C00721C1F2A00DDA7E1202118002E00891AEC
:10129C008D408840D640D340691E8D4130439846DE
:1012AC00002605436B0709D00F232B40042B05D0D8
:1012BC002B1DAB42AD416D42A8441D0043461B02A1
:1012CC0000D494E0974B721C9A4200D19DE04146A9
:1012DC00954BED0819400B00520549075B02294359
:1012EC001B0B520D12051343E4072343080019008E
:1012FC00E0BCBA46B146A846F0BD002A43D08A1BD2
:10130C00002E00D02AE14C461C4300D1D1E1541EE2
:10131C00012A00D11FE2834DAA4200D172E22200C1
:10132C0023E1002A00DC98E0002942D07D498E425E
:10133C0000D1DAE080212800090408438446382AC9
:10134C0000DD29E11F2A00DC87E111006546203908
:10135C00CD40202A04D040206146821A91400F4390
:10136C0039004F1EB9410D431BE12900394300D10F
:10137C00B5E0511E012A00D1ABE16A48824200D18E
:10138C00B2E10A0043E76949751C0D4200D0CFE079
:10139C00002E00D093E14946194300D1D1E16146BA
:1013AC00394300D0E3E149465807C9080143DB083B
:1013BC0026E02900394300D191E0511E012A05D0C5
:1013CC005848824200D18FE10A00B8E73D004D44F5
:1013DC004D45894163449846494288444346022618
:1013EC001B0200D5EBE0013E6B0700D05CE74346E7
:1013FC00E9085A0711433200DB084A48824221D0DF
:10140C001B0352051B0B520D6CE70023002169E7EF
:10141C002A003A4369D04A465807D108DA08802393
:10142C001B0308431A4207D02900ED081D4203D1C3
:10143C002A00FF0848073843430FC1005B07C9085F
:10144C00194313000A001A4300D113E2802212033D
:10145C0013431B03334A1B0B44E7002A4BD08A1B54
:10146C00002E00D1E7E02F48814200D195E1802089
:10147C0000040343382A00DD43E11F2A00DDDBE1D1
:10148C0020201D004E46801A8540D64035434E46DE
:10149C0086403000D340461EB0419C440543ED19B4
:1014AC00BD429B415B42634498460E007FE01E4A5E
:1014BC00761A13409846F5E6280001F061FD01000C
:1014CC0018311F2900DCCFE62B000838834000259B
:1014DC00D2E662463A4311004F1EB941ACE649468A
:1014EC005807C9080143DB0887E749465A07C9086A
:1014FC001143DB08A6E70D49701C084200D0BBE085
:10150C00002E00D014E14946194300D175E12900A1
:10151C00394300D07EE149465807C9080143DB082E
:10152C006EE7C046FF070000FFFF7FFFFE070000CD
:10153C004946CD1B6146581AA945894149428846FE
:10154C0001004046091A8846090200D5A6E041462A
:10155C00294300D07FE60023002451E7C74CA14269
:10156C0000D1C7E0802424042343382A54DC1F2AEA
:10157C0000DDCCE020244846A41A1D004E46A040B5
:10158C00D640A5400400D34062463543661EB441A4
:10159C00D31A9C46254344E062463A4315006F1E1D
:1015AC00BD414D444D458941494288469844434686
:1015BC001B0200D418E7B14B01369E4249D042467B
:1015CC00AF4B01211A4013006A080D401543D9078F
:1015DC005B0898460D4365E618001F3EF040202A34
:1015EC0003D040218A1A93401D43691E8D4100236C
:1015FC00002698460543F7E6110065462039CD4094
:10160C00202A04D040206146821A91400F433900B1
:10161C004F1EB94129430FE64A4613431D006B1E6A
:10162C009D417D1BAF429B4162465B42D31A98465B
:10163C0054460E0007E64846184300D1B3E0501E4E
:10164C00012A00D10DE18D4DAA4200D1A5E0020086
:10165C0010E732000023002144E620213800891ACB
:10166C0065468F408D40D040791E8F4105433D43E8
:10167C006746D740DB1994E7804A904200D1ECE0F2
:10168C003900494449459241634452429B18DD0755
:10169C0049085B08984606000D43A5E64A46BD1A64
:1016AC00AF42894162464942D31A5B1A9846544666
:1016BC00D1E56C07F9082143EB0804009DE64A4686
:1016CC001A4375D16146394314D1802300241B037E
:1016DC00BCE64A46D51BA9458941624649429B1A3C
:1016EC005B1A98460126AEE54A46D1085A071143C3
:1016FC00DB08A7E66346F9085A0754461143DB0892
:10170C00A0E64A4613431D006B1E9D41C7E614001C
:10171C001E00203CE640202A05D04024A21A93400B
:10172C004A461A4391464D466B1E9D41354378E718
:10173C004A461A4300D06BE66B07F9081943EB08CD
:10174C0080E66146394354D06346F9085C0721436F
:10175C00DB08040054E64A46BD1AAF428941624692
:10176C004942D31A5B1A9846040001266BE54A4697
:10177C00D51BA9458941624649429A1A521A90468C
:10178C00120232D54A46BD1AAF42894162464942DD
:10179C00D31A5B1A9846040084E56346F9085A0785
:1017AC001143DB084EE6F90868070143EB0824E611
:1017BC0062463A4300D198E64A46D1085A0711438B
:1017CC00DA0880231B031A4208D06046C5081D4264
:1017DC0004D154462A00F908430719434B0FC9009A
:1017EC005B07C908194313002CE64146294300D076
:1017FC00FAE500230A00002402E66B07F9081943F6
:10180C00EB08FDE56346F9085B07194363460400E2
:10181C00DB0817E63D004D4463444D45894198462D
:10182C004942884443461B0200D4DDE54246144B32
:10183C0001261A409046D7E510001E002038C640FD
:10184C00202A05D04020821A93404A461A439146DA
:10185C004D466B1E9D41354321E6020000230021BD
:10186C0040E54A46D519BD428941634498464942F0
:10187C008844B3E50021014A0B0033E5FF07000063
:10188C00FFFF7FFFF0B557464E464546DE46E0B5B6
:10189C00814605000C03480092461F0085B0240BBE
:1018AC00400DCE0F002859D0874B984200D198E0BC
:1018BC006B0FE4001C4380231B0423439846834B8B
:1018CC00ED009B4600239946834400933C037B0028
:1018DC005046240B5B0DFF0F002B67D07A4A9342C6
:1018EC0018D07A49420F8C46E400594614438022A2
:1018FC0063441204CB1A14439B46C20000203300ED
:10190C007B409A464B460F2B00D9EFE070499B0069
:10191C00CB589F466F4B52469C462243E344002AC9
:10192C0000D095E049460223194389460024022041
:10193C00E5E700230024002552461B052343D2076C
:10194C0013432800190005B0F0BCBB46B246A946AB
:10195C00A046F0BD002400255B4BEDE74B4623432E
:10196C00984600D189E0002C00D1E0E1200001F084
:10197C0007FB010002000B391D235B1A49461000BE
:10198C00D940083884400B004D4623439846854087
:10199C0051483C03831A9B460023994600937B00D5
:1019AC005046240B5B0DFF0F002B97D15246224360
:1019BC0055D0002C00D1CAE1200001F0E1FA020060
:1019CC000B3A1D2301009B1A52460839DA408C4011
:1019DC00144352468A40414B58449B468344002052
:1019EC008DE74B462343984640D108239946063B46
:1019FC0000258346009369E7B246009B022BA9D0D1
:101A0C00032B00D111E2012B93D0354A5A44002A02
:101A1C0000DC3CE16B0700D0A7E1ED084346DB019D
:101A2C0006D542462F4B1A4090468022D2005A448B
:101A3C002D4B9A428EDC4346520558075C020543F7
:101A4C00240B530D78E7BA46A04615000090D4E756
:101A5C004A4603231A439146032052464FE7494610
:101A6C000123194389460024012048E70C23994699
:101A7C00093BA0468346009328E70423994600239C
:101A8C009B4601330025009320E7002380249A46CF
:101A9C0000250D4B24034FE7802341461B031942BD
:101AAC0008D01C4206D11C432403BA461500064B31
:101ABC00240B41E78024434624031C432403B246F1
:101ACC00014B240B38E7C046FF07000001FCFFFF69
:101ADC001085010801F8FFFF0DFCFFFFF303000068
:101AEC00FF030000FFFFFFFEFE070000444500D28D
:101AFC0016E100D111E101235B429C462E004046C9
:101B0C000025E3442302140E1C431B0C99462304AA
:101B1C001F0C1202494600920197FEF799FB020036
:101B2C007A430B04310C804619438A420BD90123AA
:101B3C005B429C460919E0448C4204D88A4202D983
:101B4C00831E98460919881A4946FEF781FB090439
:101B5C008C4631046646019A090C4243030031431A
:101B6C008A4204D90919013B8C4200D811E1891A27
:101B7C004246009E12041A43330C1F00100C904670
:101B8C00029313043204160C32001B0C5A430396B6
:101B9C007B4346437843170CBC469B1963449E42D7
:101BAC0003D980267602B44660441E0C3018160405
:101BBC001B04360C9E19814200D29CE000D197E0A8
:101BCC00AE1B091AB54280414042081A844200D12A
:101BDC0011E14946FEF73CFB019A0B044243310CE0
:101BEC00050019438A4207D90919013D8C4203D8D3
:101BFC008A4201D9851E0919881A4946FEF728FB25
:101C0C0009048C4631046646019A090C42430300D0
:101C1C0031438A4207D90919013B8C4203D88A42C5
:101C2C0001D9831E0919039E891A32002D041D4304
:101C3C00029F2B041B0C5A437B439C46280C4643A7
:101C4C00130CB444634478439E4203D98026760235
:101C5C00B44660441E0C12041B04120C30189B1862
:101C6C00814206D302D001231D43CEE6002B00D1C6
:101C7C00CBE661186E1EA14200D2A4E0814200D2D4
:101C8C00C9E000D1D9E03500EDE701256D42012115
:101C9C00891A382900DD4CE61F2900DC7FE01F2360
:101CAC005B429A1A4346D340202904D04446654AE5
:101CBC005A44944025436A1E954107222B43150034
:101CCC0000241D401A4200D1A1E00F2200241A402A
:101CDC00042A00D198E01A1D9A429B415B42E418F9
:101CEC001300220200D48FE001230024002523E6F8
:101CFC00B54200D364E743465A1E009B9C4665449C
:101D0C001F009D429B415B421B19C9188C423AD261
:101D1C00884263D860D0904652E7AA4200D9EAE6DE
:101D2C004346DE0758086B081E43ED07EAE64846B3
:101D3C0001F026F901000200153120321C2900DCCB
:101D4C001AE64B46083883400025984620E601F0F9
:101D5C0017F903001A00153220301C2A00DC30E67B
:101D6C005446083B00229C4035E60F232B40042BA5
:101D7C0000D152E605235B42AB429B4104355B42EA
:101D8C00ED0898444AE68C42C5D1AF42C0D9904682
:101D9C0016E78A4200D8EAE6831E0919E7E62A4AC2
:101DAC0028005A44434695409340C8406A1E9541CA
:101DBC00444603432B43CC405A0792D00F221A407F
:101DCC00042A88D18DE73500814200D04BE7009A78
:101DDC00934200D047E718E6AE429CD902235B42FF
:101DEC009C46009BE0449C4665449D429B415B4263
:101DFC001B19C918E4E6154A5A44002A00DC44E7CA
:101E0C0001230025984409E665076402240BDB08CE
:101E1C001D43002390E5009E023D7200B242BF417B
:101E2C007F423C1909190092CEE7802443462403D3
:101E3C001C432403064B240B7EE5009A9A42EAD3FA
:101E4C003500C4E73E0400001E040000FF03000040
:101E5C00FF070000F0B54F464646D64694469146DD
:101E6C001A03120B184DC0B54C000F0392465A00C2
:101E7C00060080463F0B0120640DC90F520DDB0F8D
:101E8C00AC420AD0AA4203D0944201D157450DD09E
:101E9C00E0BCBA46B146A846F0BD3D003543F7D18B
:101EAC00A242F5D1524665462A43F1D10120C845DC
:101EBC00EED1994206D0002CEAD13E433000461EAA
:101ECC00B041E5E70020E3E7FF070000F0B54E4620
:101EDC0045465746DE4604001800E0B516001B03C5
:101EEC001B0B324D0F034A0099464300A446B046E3
:101EFC003F0B520DC90F5B0DC00FAA4229D0AB424C
:101F0C0018D0002A2AD13C43A34665426541002BD8
:101F1C0002D14C46264327D0002D15D1814228D022
:101F2C000220013908400138F0BCBB46B246A94634
:101F3C00A046F0BD4D462E432FD1002AEED13C4396
:101F4C0065426541002DE9D00028EDD101204042C9
:101F5C00EAE73D00254320D19342EBD0002BDDD1A5
:101F6C004C462643DAD1DBE75B460020002BDBD066
:101F7C00D6E79A420ADCE7DB4F45D1D810D00020D7
:101F8C004F45D1D20029E1D00800CDE7434258415A
:101F9C000223404218400138C6E702204042C3E702
:101FAC00C445BDD80020C445BED2EBE7FF070000F6
:101FBC00F0B54E4645465746DE4604001800E0B5DF
:101FCC0016001B031B0B314D0F034A0099464300AF
:101FDC00A446B0463F0B520DC90F5B0DC00FAA4271
:101FEC0011D0AB4214D0002A2FD13C43A3466542FA
:101FFC006541002B14D14C46264311D15B46002081
:10200C00002B17D010E03D00254312D193421CD178
:10201C004D462E430DD1002A04D13C436542654107
:10202C00002D0DD1814216D0022001390840013813
:10203C0000E00220F0BCBB46B246A946A046F0BD6B
:10204C000028F7D101204042F4E7002BEAD14C469E
:10205C002643E7D1E8E79A4206DD43425841022382
:10206C00404218400138E5E79A42E9DB4F45DBD89E
:10207C0006D000204F45DDD20029E3D00800D9E777
:10208C00C445D1D80020C445D4D2F5E7FF070000E1
:10209C00F0B557464E464546DE46E0B598460C032D
:1020AC004B000600924687B0240B5B0DCF0F002B24
:1020BC006CD0DD4A934200D186E0420FE400144319
:1020CC00802212041443D94AC500944663440093F9
:1020DC00002399469B46434642461E03D20F5B00A3
:1020EC0050469046360B5B0D00D178E0CE4A9342B9
:1020FC001DD0CE49420F8C4600996344F6008C46A5
:10210C00164380229C44120463461643C2000020EE
:10211C0000930099434601318C4649467B4001931C
:10212C000F2900D97EE0C24B890059588F46524680
:10213C00009B324300D056E1BB4900268C466344D9
:10214C00494600930223194389460220E1E743469E
:10215C0001933400150083465B46022B5ED0032BA3
:10216C0000D1F3E1012B00D018E10022002400255E
:10217C00019B12052243DB071A432800110007B00C
:10218C00F0BCBB46B246A946A046F0BD25000543AF
:10219C0000D141E1002C00D1ADE1200000F0F0FEB7
:1021AC00010002000B391D2310005B1A31003500B1
:1021BC0008388440D94085400C439E48831A0093CC
:1021CC00002399469B4686E70500254300D01CE179
:1021DC00082200930223002491469B467BE752463B
:1021EC00324300D10AE1002E00D176E1300000F03C
:1021FC00C7FE02000B3A1D2301009B1A52460839F8
:10220C00DA408E40164352468A40009B8949181A80
:10221C0003008C466344002000937AE700240025D9
:10222C00814AA5E72F0C2D042D0C2B00110C120448
:10223C00120C53439846130028007B43994648439D
:10224C004844834640460B00000C824658467B436C
:10225C0050440293814506D99A4680235B029946E5
:10226C00CA4453460293030C9B4643461B0400048A
:10227C001B0C9846030043440493330C99462B00E3
:10228C003604360C7343984633007B439A464B46D0
:10229C005D435F4343465544180C4019824503D9AE
:1022AC0080235B029A465744050CEB190593434671
:1022BC001D042D0C00044019250C2404240C2700AB
:1022CC0057436A4390462A003B0C9A464A43614363
:1022DC00414451448344884503D980235B0298468A
:1022EC0042443F040B0C3F0C0904C91927009846C3
:1022FC004B4677435C436E435D433B0C9946A419B4
:10230C004C4442440395A64204D980235B02984670
:10231C0045440395029B3F045B441E00834280416D
:10232C0023049846059B3F0C4744984676188E42EA
:10233C008941474440423D18A846934649428A4643
:10234C00C3449F42BF4180458041039BDA44984679
:10235C00534640427F420743240C934592418A45A1
:10236C0089413F19DC0D049B75021D43681E854194
:10237C005346524249420A43BF184744F60D7F0266
:10238C0035435A023C431543FB0100D4C1E0012103
:10239C006A080D401543E207154364082649614459
:1023AC00002956DD6B0709D00F222A40042A05D0DC
:1023BC002A1DAA42AD416D4264191500E30104D5F2
:1023CC0080211E4AC900144061441D4A914200DD1F
:1023DC0024E76207ED08640249051543240B4A0DF6
:1023EC00C6E60197B8E6104A0320944663444A4671
:1023FC00009303231A43914652468AE64946012329
:10240C00194389460026012083E60C2200930323FE
:10241C00050091469B465EE60423994600230093F3
:10242C00013300249B4656E6FF07000001FCFFFF2A
:10243C00508501080DFCFFFFFF030000FFFFFFFEAE
:10244C00FE070000002380240025444A0193240346
:10245C008EE60120401A382800DD86E61F285BDD59
:10246C001F2223005242511ACB401900202803D0BE
:10247C003B4A6244944025436A1E95412A000A4314
:10248C0007210D000024154011425BD00F210024C0
:10249C001140042953D0111D914292415242A4186B
:1024AC000A0023024BD501220024002560E680237C
:1024BC001B031C4209D01E4207D133431C03434665
:1024CC001500240B254A019352E680221203144373
:1024DC002403224A240B01974AE600F051FD030025
:1024EC001A00153220301C2A00DC84E65646083BC4
:1024FC0000229E4089E600F043FD010002001531E8
:10250C0020321C2900DC4EE63400083800258440BB
:10251C0053E6009B9C4641E71249220061442E0081
:10252C008D408A40C640691E8D4132432A43C440C7
:10253C005307B6D00F2111400429ACD1B1E7650780
:10254C006402240BD2081543002211E680221203E8
:10255C0014432403014A240B0AE6C046FF0700007B
:10256C003E0400001E040000F8B557464E46454692
:10257C00DE460400E0B51F0010000B03620F4E0096
:10258C00CD0F5B0A39031343490AE200440F214380
:10259C00C24C91469246C0007A008046760D520D90
:1025AC00FF0FA24200D1B4E001246740BB46BD42FC
:1025BC0000D188E0B41AA446002C00DCB2E0002A5A
:1025CC0000D1C5E0B54A964200D18BE280221204BC
:1025DC0011436246382A00DDA1E11F2A00DD16E214
:1025EC0020270C00BF1ABC400200A0466446B8402D
:1025FC00E240444614430200501E82416046C140F2
:10260C0022435B1A49468C1AA145924152429B1AAD
:10261C00984643461B0200D417E143465B025B0A13
:10262C0098464346002B00D16CE1404600F0A8FCD4
:10263C000200083A202120004346891A9340C840E2
:10264C0094400343964200DD57E1961B711C1F29F1
:10265C0000DDCBE1202218002600521A9440904055
:10266C00CE40CB40621E9441304398460026044332
:10267C00630709D00F232340042B05D0231DA3424D
:10268C00A4416442A0441C0043461B0200D4DFE07A
:10269C00824B01369E4200D1FBE04246804BE4085F
:1026AC001A401300710552075B0222431B0B490DA4
:1026BC000905ED07194329431000F0BCBB46B2468F
:1026CC00A946A046F8BDB41AA446002C58DD002A31
:1026DC0000D19EE0714A964200D13BE18022120467
:1026EC0011436246382A00DDC1E01F2A00DCBBE141
:1026FC000C00203AD44022006446202C04D0402701
:10270C003F1BB940084380464446611E8C4114432C
:10271C00B1E00C0004432AD0BB46BD422DD0614C25
:10272C00A446B4446446002C5CD0941BA446002EF2
:10273C0000D015E14D461D4300D1C3E1651E012CAF
:10274C0000D10CE2554EB44200D1F8E1AC460EE19A
:10275C000A00024300D136E12200013A012C00D1DB
:10276C00C6E14E4CA44500D1F4E0944631E7012477
:10277C006740BB46BD4200D01CE74A4CA446B4445B
:10278C006446002C00D1CFE0941BA446002E00D14F
:10279C005CE1424EB24200D1ECE180263604334378
:1027AC006446382C00DDB3E11F2C00DD38E2202616
:1027BC00361B1C00B4404F46A0466446E7404446D6
:1027CC003C434F46B7403E00771EBE4134436646FD
:1027DC00F340C918241884429B415B42984616006A
:1027EC0088444EE0304A741C144200D0D6E04A466D
:1027FC001A43002E00D05BE1002A00D1A5E10A00AB
:10280C00024300D0BBE14A465907D2080A43DB0811
:10281C0027E00A00024300D174E12200013A012CA6
:10282C0005D01E4CA44500D194E0944659E7484489
:10283C00484592415B1898460400524290444346E6
:10284C0002261B0200D5C4E0013E630700D011E74D
:10285C004346B4465907E2080A43DB080F498C4546
:10286C0040D061461B0349051B0B490D20E7014372
:10287C000C00611E8C414C444C4592415242904696
:10288C00984443461B02E0D5044B01369E4200D0CF
:10289C009FE03100002300220AE7C046FF0700003A
:1028AC00FFFF7FFF01F8FFFFFE070000002A00D1A9
:1028BC0060E10A0002434DD04A465C07D20822432D
:1028CC008024DB082403234207D0CE08264204D1FF
:1028DC005D463300C20849070A43510FD200D208A3
:1028EC0049070A431100194300D1C8E180210903AB
:1028FC000B431B03D5491B0BDAE6D549B61A0B4023
:10290C009846B5E6200000F03BFB020018321F2A67
:10291C0000DC8FE6230008388340002492E608434D
:10292C000200501E82416DE6CA4C721C224200D03D
:10293C00ADE04A461A43002EB8D1002A00D158E126
:10294C000A00024300D059E14A465907D2080A430B
:10295C00DB0886E74A465907D2080A43DB08C1E779
:10296C00BA4DAA4200D11EE180252D042B436446AA
:10297C00382C5DDC1F2C00DDD0E0202567462D1B9C
:10298C004E461C00FE40AC4034434E46AE40350033
:10299C00FB406E1EB541C91A2C434EE04A46141A30
:1029AC00A1459241524290465F1A3A004746D21BCB
:1029BC009046120200D58BE04246224300D030E60E
:1029CC00002300254DE74A465907D2080A43DB0885
:1029DC0044E742469E4B61081A4013000122144002
:1029EC000C43DA075B089846144341E61A001F3E75
:1029FC00F2401600202903D04022511A8B401C4370
:102A0C00621E944100233443984600261DE70C00B7
:102A1C00203AD44022006446202C04D040273F1B8F
:102A2C00B940084380464446611E8C412243E9E587
:102A3C004C4623431C00631E9C41041BA0429B413B
:102A4C005B42CB1A98465D461600E2E54E461E43A5
:102A5C0000D1AEE0661E012C00D1FDE07B4FBC42E4
:102A6C0000D107E1B4469BE664462022121B0C0001
:102A7C00944007009040A0466446421E9041624636
:102A8C00E7404446D1403C4304435B18F3E66F4CAB
:102A9C00A24200D1D5E048445B18484589414942DF
:102AAC005B18DC0740085B08984616000443CCE62C
:102ABC00002A00D082E00A00024340D18023002586
:102ACC001B0313E74B07C2081A435D46CB08C5E648
:102ADC004A46841AA0429241CB1A52429B1A9846FB
:102AEC005D469EE54A465907D2080A43DB08F9E6DB
:102AFC004A46141AA14592415B1A52429B1A9846B7
:102B0C00012686E54A465907D2080A43DB08A5E6A2
:102B1C004C4623431C00631E9C415BE665461E002D
:102B2C00203DEE40202C05D040252D1BAB404C46C3
:102B3C001C43A2465446631E9C4134437DE74B071D
:102B4C00C2081A435D46CB08CCE60A00024300D10A
:102B5C0036E74B07C2081A435D46CB0881E64A4666
:102B6C00841AA0429241CB1A52429B1A98465D4657
:102B7C0001264EE54B07C2081A43CB08B2E64A467B
:102B8C00141AA14592415F1A5242BA1A9046120287
:102B9C006BD54A46841AA0429241CB1A52429B1AD8
:102BAC0098465D4664E54B07C2081A435D46CB0860
:102BBC0098E64B07C2081A43CB084FE60A000243BB
:102BCC0090D04A465C07D20814438022DB081203DB
:102BDC00134208D0CE08164205D1C0084907084355
:102BEC0004005D463300610FE2004907D2080A4336
:102BFC0078E64B07C2081A43CB0832E648445B1808
:102C0C0048459241984652429044434604001B0268
:102C1C0000D41AE642460E4B01261A40904614E6A2
:102C2C0066461F00203EF740202C05D04026361B60
:102C3C00B3404C461C43A2465446631E9C413C4345
:102C4C00C8E511000023002232E5C046FF07000052
:102C5C00FFFF7FFFFE0700004A4614188442924192
:102C6C005B18984652429044E9E54246224300D113
:102C7C00A6E6EAE54B07C2081A43CB0832E6002267
:102C8C000149130014E5C046FF07000070B50500AC
:102C9C000C480C03160049001A035B00240B490D69
:102CAC00120B5B0D814208D0064900208B4203D1E8
:102CBC0032431000421E904170BD01202C43FBD1C9
:102CCC00F2E7C046FF0700000A0030B5134C530072
:102CDC0009030500090B00205B0DD20FA34204DD94
:102CEC000F48834202DD0F4BD01830BD80204003CB
:102CFC0001430D48C01A1F2808DD0C48C31AD940DF
:102D0C000B005842002AF0D11800EEE7084CC540E1
:102D1C00A446634499400B002B43F2E7FE030000EA
:102D2C001D040000FFFFFF7F3304000013040000AC
:102D3C00EDFBFFFF70B5002816D0C317C5185D401A
:102D4C00C40F280000F01CF9114A121A0A2816DCCC
:102D5C0003002E0015339E400B23181AC540530553
:102D6C002D032D0B5B0D03E0002400230025002612
:102D7C001B052B43E40723433000190070BD0B38AF
:102D8C00854053052D0300262D0B5B0DF0E7C04647
:102D9C001E04000010B5041E10D000F0F1F80F4B0B
:102DAC001B1A0A2811DC0B222100121AD1401530F3
:102DBC000A035B058440120B5B0D01E0002300222B
:102DCC001B0513432000190010BD22000B38824054
:102DDC005B0512030024120B5B0DF1E71E040000CF
:102DEC0070B543004602C40FFE201B0E591C750A19
:102DFC0008420CD0E022920094466D07360B6344D7
:102E0C001B053343E40723432800190070BD002B36
:102E1C0014D1002D1BD0280000F0B2F80A281CDCBD
:102E2C000B232A001B1ADA40030015339D400E4B6E
:102E3C0012031B1A5B05160B5B0DE1E7002D09D085
:102E4C00320B80263603094B6D071643D8E7002357
:102E5C000026D5E70026054BD2E703002A000B3BE2
:102E6C009A400025E3E7C04689030000FF070000F5
:102E7C0002004B00F0B508035B0D3D4ECC0F400A31
:102E8C00510F5F1C0843D50037420AD039495E18F0
:102E9C00FE2E16DDFF230021DB050B43E007184354
:102EAC00F0BD002B06D1284327D005218901490A02
:102EBC00DBB2F1E70543EDD08021C903FF230143C9
:102ECC00EAE7002E1CDD920111004A1E9141C00060
:102EDC006D0F014329434B0748D00F230B40042BA4
:102EEC0000D004318023DB040B403FD0721CFE2E3B
:102EFC00D0D08901490AD3B2CEE700230021CBE719
:102F0C003200173222DB80211E2209040843921B57
:102F1C001F2A1DDD022149428E1B0100F1400E00CB
:102F2C00202A04D0144A944663449840054329004F
:102F3C004D1EA941314300264B07CED180200B00FA
:102F4C00C004012203400142D3D1AFE70023ACE718
:102F5C000A498C4629006344D1409D400A0029004F
:102F6C0098404D1EA94101431143E4E733009DE70E
:102F7C00FE07000080FCFFFFA2FCFFFF82FCFFFFAE
:102F8C001C2101231B04984201D3000C10391B0A8D
:102F9C00984201D3000A08391B09984201D3000951
:102FAC00043902A2105C40187047C04604030202A8
:102FBC00010101010000000000000000F0B583B029
:102FCC00234B1B889BB2234A934211D01A0A17D069
:102FDC0021490A70214A13701F4B1878002835D0EC
:102FEC00012602226B46D91D00239C461C4D0FE086
:102FFC00194B01221A70194B00221A70FA2025E085
:10300C00154A01211170E5E70136F6B286421CD84B
:10301C0063460B700B78DBB20A2BF5D8731E9C0041
:10302C00E4186400E4180A4BD7180B783F881B1976
:10303C005B00EF52023292B20B780133DBB20B70B1
:10304C000B78DBB20A2BEED9DEE7002003B0F0BD23
:10305C0000D80108FFFF0000300000200E080020FF
:10306C00BC020020F8B50E4B1D78002D16D00D4972
:10307C00022009F0F5F901240025094E094F01340D
:10308C00E4B23378A34209D3611E4900C919601C0C
:10309C0009F0E6F9192CF2D90A25F0E72800F8BD59
:1030AC003000002040670020F0B5DE4657464E4603
:1030BC004546E0B583B06B460022DA802127002319
:1030CC0098461A4B9B469A4610E04B469B004B4445
:1030DC005B00534400225A7243460133DBB29846DC
:1030EC000537BFB2124B1B78434517D37C1FA4B2D4
:1030FC0043469D0045446D005D446B469E1DC14694
:10310C003100200009F0ACF933886B701B0A2B706E
:10311C000134A4B20235A742F2D1D6E7002003B0A5
:10312C00F0BCBB46B246A946A046F0BD0007002045
:10313C0030000020F0B5D6464F464646C0B582B0AA
:10314C006B460022DA80234B1B78002B1DD0002409
:10315C00214E204DE1B2490071182000CB3080B2D5
:10316C0009F07EF9631C9CB22A78DBB29A42F1D842
:10317C001A4B994627009E37BFB2D034A3B298465B
:10318C006B469E1D00239A460BE00024F0E74B464D
:10319C0052465A720A239C46E1440537BFB2474552
:1031AC0010D07C1FA4B24D463100200009F058F914
:1031BC0033886B701B0A2B700134A4B20235BC42ED
:1031CC00F2D1E4E7002002B0E0BCBA46B146A84612
:1031DC00F0BDC046300000205C060020F805002041
:1031EC0070B584B00E21694400230B8003AA1380B0
:1031FC00E42009F035F90025002802D10E236B4498
:10320C001D780E216944E52009F02AF9040003A970
:10321C00E62009F025F90443A4B20026002C06D1BF
:10322C000E236B441E88360403AB1B88F6180E2144
:10323C006944E72009F014F9040003A9E82009F017
:10324C000FF9204380B20024002806D10E236B44D2
:10325C001C88240403AB1B88E4180E216944E92064
:10326C0009F0FEF8002807D10E236B441B88190ABD
:10327C00284A1170284A13700E216944EA2009F07B
:10328C00EFF8002807D10E236B441B88190A234A38
:10329C001170234A13700E216944EB2009F0E0F8F9
:1032AC00002807D10E236B441B88190A1D4A117084
:1032BC001D4A1370174B1B78002B03D0164A12783B
:1032CC00002A12D1154B1B78002B03D0144A12780C
:1032DC00002A11D1134B1B78002B03D0124A127801
:1032EC00002A10D1002004B070BD009222003100E1
:1032FC00280004F0BFFCE5E7009222003100280012
:10330C0004F0B8FCE6E7009222003100280004F03B
:10331C00B1FCE7E7CA080020F5050020CB08002027
:10332C00F6050020CC080020F705002010B582B06F
:10333C008A206B46991D400009F092F8002800D0B5
:10334C0074E06B4606331B88514A13701B0A53708A
:10335C008E206B46991D400009F082F8002800D0A1
:10336C006BE06B46DB884A49DA0B0A715B08CB8051
:10337C0016206B46991DFF3009F072F8002863D1B6
:10338C006B46DA88434B1A808B206B46991D4000A4
:10339C0009F066F800285AD16B46DA883D4B5A8002
:1033AC0018206B46991DFF3009F05AF8002851D1AE
:1033BC006B4606331B88374A13711B0A53718C20DA
:1033CC006B46991D400009F04BF804001A2001A926
:1033DC00FF3009F045F80443A4B2002C41D101ABF5
:1033EC001B881B046A46063212881343294A9360D1
:1033FC008D206B46991D400009F032F800283ED113
:10340C006B4606331B88234A13731B0A53731C2009
:10341C006B46991DFF3009F023F8002835D16B4617
:10342C009A791C4B9A76002002B010BD184B1A4AA0
:10343C001178197052785A708AE7154B164A11791F
:10344C001971D288DA8093E7144B1A889AE7134BD8
:10345C005A88A3E70F4B114A1179197152795A7195
:10346C00ADE70F4B1B78002B04D00A4BE122520224
:10347C009A60BDE7094B9A68064B9A60B8E7054B12
:10348C0018225A7300221A73C1E7044B9A7EC8E7BC
:10349C00F8610020786200200C000020140000204D
:1034AC00B7020020F0B5CE46474680B589B01E2342
:1034BC006B4400221A80364EEC2401250F27012381
:1034CC00984605E001350434A4B20936052D59D0CF
:1034DC001E236B441900200008F0C2FF0028F1D114
:1034EC006B46DB8B190A1A0BAA42EBD13A000A4045
:1034FC000F42E7D0B2727374A80083B299461800D9
:10350C00E93080B21E236B44190008F0A9FF6B460A
:10351C00DB8B1A0AF272B3734846EA3080B21E2370
:10352C006B44190008F09CFF6B46DB8B1A0A327354
:10353C00F3734846EB3080B21E236B44190008F03D
:10354C008FFF6B46DB8B1A0A72733374EBB2B07A53
:10355C009946190009F026FC717CF37A4A10404612
:10356C000240014000200590307C0490F07B0390D9
:10357C00B07B0290707B0190307B0090484609F044
:10358C0029FD9FE7002009B0C0BCB946B046F0BD8C
:10359C0058130020F8B5DE4657464E464546E0B572
:1035AC00322010F005FB804600286CD0384B1B787D
:1035BC00FE2B6AD1374B9946354C012343449A462E
:1035CC0026E0002543465B19013B1B78002B01D0FC
:1035DC000135EDB2280010F0EBFA5B46D8600028FC
:1035EC003DD02A00414610F005FB2B4B1B780133D4
:1035FC00294A13702A000021404610F004FB3B7846
:10360C00FE2B36D1EA3B9C46E144244B994530D005
:10361C002100143123004246161B1A78F254013350
:10362C008B42FAD11434CB4614225146484610F042
:10363C00E1FA14220021404610F0E5FA2700237825
:10364C00FD2BBED80025143E335501340135EDB2A7
:10365C0027002378FD2BB5D8322DF5D1B2E71422F3
:10366C000021584610F0CFFA404610F0ABFA0E206D
:10367C0003E0404610F0A6FA0020F0BCBB46B24670
:10368C00A946A046F8BDFB20F7E7FF20F5E7C046AA
:10369C0000DC0108946200209F090020F8620020E1
:1036AC0010B5FFF78BFCFFF7DDFCFFF7FDFCFFF718
:1036BC0041FDFFF795FDFFF739FEFFF7F3FEFFF72E
:1036CC0069FF10BDF8B50E4B1D78002D16D00124E6
:1036DC0000250C4F1E0008E0601C08F0EDFE09E010
:1036EC000134E4B23378A34208D3631E5B00D95B88
:1036FC000029F1D1192CF3D90A25F1E72800F8BDDE
:10370C003000002040670020F0B5DE464F464646AC
:10371C00C0B50025002399461A4B9B461A4F04E06E
:10372C000135EDB23B78AB4225D3AB005B195B00A6
:10373C005A469B5C002BF3D0AE0076197600114BE9
:10374C009C4666444C461C34A4B24B4621339BB277
:10375C00984633781B027178C91889B2200008F09A
:10376C00ABFE02360134A4B2A045F2D14B46053370
:10377C009BB29946D4E70020E0BCBB46B146A846B4
:10378C00F0BDC0460007002030000020F8B5DE4632
:10379C0057464E464546E0B50F0016001C000AABD6
:1037AC001B789B460BAB1B789A460CAB1B78994647
:1037BC000DAB1D780EAB1B7898460100E42008F089
:1037CC007BFE390A89B2E52008F076FEB9B2E62014
:1037DC0008F072FE310A89B2E72008F06DFEB1B232
:1037EC00E82008F069FE24025C44A1B2E92008F04C
:1037FC0063FE53461902494489B2EA2008F05CFE84
:10380C002D024544A9B2EB2008F056FE0020F0BC76
:10381C00BB46B246A946A046F8BD000010B51F4CE9
:10382C0063785B01217819438A20400008F044FE3C
:10383C002179C903E388194389B28E20400008F02E
:10384C003BFE174C21881620FF3008F035FE6188AE
:10385C008B20400008F030FE63791B02217B19435A
:10386C001820FF3008F028FE21898C20400008F039
:10387C0023FE61891A20FF3008F01EFE637B1B02B9
:10388C00217919438D20400008F016FEA17E1C20E2
:10389C00FF3008F011FE002010BDC046F86100207A
:1038AC0078620020F8B534220021104810F0ABF9F2
:1038BC000F4B1D78002D16D0012400250B4F1E0038
:1038CC0008E0601C08F0F8FD09E00134E4B233783C
:1038DC00A34208D3631E5B00D95B0029F1D1192CDC
:1038EC00F3D90A25F1E72800F8BDC046406700204F
:1038FC003000002010B5074B074A12689A4200D1DD
:10390C0010BD08F089FE0028FAD1034B014A1A6059
:10391C00F6E7C046ADDEEFBEF07F002030B58FB0CD
:10392C0004AB009307AB12226A4408A9012009F0EA
:10393C0005F903AC009405AB0E226A4406A90220DB
:10394C0009F0FCF801230A9300250B956B465B8A62
:10395C00099309A908980EF0EBF90A9502230B9329
:10396C002388099309A905980EF0E2F96B46598A48
:10397C00002208980EF060FB05200AF06FFC2188ED
:10398C0005980EF053FB03000020002B01D00FB064
:10399C0030BD12336B441988012208980EF04CFB91
:1039AC0005200AF05BFC03AB198805980EF03EFB72
:1039BC00013843425841C0B2E9E7000010B5044B4E
:1039CC009968FCF799FB43425841C0B210BDC04600
:1039DC0098000020F8B505001B49FCF78DFB06008C
:1039EC0006271A4C002E23D021002800FCF784FB5C
:1039FC0000281FD016492800FCF77EFB00281BD09E
:103A0C0014492800FCF778FB002817D0124928002D
:103A1C00FCF772FB002813D010492800FCF76CFB54
:103A2C0000280FD0013FFFB2002FDBD13800F8BDCA
:103A3C000127FBE70227F9E70327F7E70427F5E758
:103A4C000527F3E70627F1E790850108948501081F
:103A5C00988501089C850108A0850108A4850108AA
:103A6C0070B50AF0B3FA0AF051FB08F039FE09F010
:103A7C002FF807F0DBFB0AF07DFB08F045FC0AF0A1
:103A8C00ABFB09F097F800283CD1FFF747FF002863
:103A9C0043D0364B01221A7032200AF0DFFB06F0BD
:103AAC0003FE334CE1214902A16001200AF090FD94
:103ABC00A16802200AF08CFDA16803200AF088FDA1
:103ACC00FFF7EEFD0AF018FE08F04AF8294B1B78B8
:103ADC00002B28D180252D019024E40501222900FA
:103AEC0020000EF0A9FAFA2040000AF0B7FB0022E1
:103AFC00290020000EF0A0FA03F094FD1E4B0122C9
:103B0C001A7070BDFFF7F6FEBFF34F8F1B4B1C4AAC
:103B1C00DA60BFF34F8FC046FDE732200AF09EFB00
:103B2C0006F0C2FDCCE780252D019024E40501228E
:103B3C00290020000EF080FAFA2040000AF08EFBDB
:103B4C000022290020000EF077FA64200AF086FB90
:103B5C000122290020000EF06FFA64200AF07EFB8F
:103B6C000022290020000EF067FAC5E7B7020020FA
:103B7C00786200200E080020B602002000ED00E064
:103B8C000400FA0510B50CF0BBFD06F081FBFFF745
:103B9C0067FF03F063FD0AF04DFE10BDF0B583B076
:103BAC00060001240E4D032703E00134E4B2042C7B
:103BBC0012D0A642F9D00B4B1B881A0A2A706B70D4
:103BCC00AC7000970A2300220021200004F050F969
:103BDC000A200AF034FEE8E7002003B0F0BDC0462E
:103BEC00D006002064000020F0B5DE4657464E4655
:103BFC004546E0B583B000AF474B1D78EB1DDB08A5
:103C0C00DB006A46D31A9D466C46002D09D0434A08
:103C1C0000230021E154118001330232DEB2B5429F
:103C2C00F8D8013801232354162242433C4BD218B6
:103C3C0000213A4E40000123984601339C467D609A
:103C4C00A34603E001310232062911D05388002B20
:103C5C00F8D0855BA94645468D40AA464D4654464C
:103C6C0025438553DB085B44013B64461C70E9E744
:103C7C007D685C46022399464B460133DBB299467C
:103C8C00002D40D026480022002601235B424B44E5
:103C9C00B4461E002AE0013107291FD04B00C35A3D
:103CAC00002BF8D0DB08013BE55C002DF3D14D1E59
:103CBC00AA4601255646B540AA46184D555BAB465B
:103CCC0055465E463543AA46144D564656534D4608
:103CDC00E55463460133DBB29C46DCE742467D6823
:103CEC003E6801321630D3B29D4209D9A35CB3426F
:103CFC00F7D1530001217D6090463E601A00CDE75C
:103D0C006646002EB8D10020BD4603B0F0BCBB46C1
:103D1C00B246A946A046F0BD30000020FC040020AD
:103D2C00BC020020F0B505000B78FF24002B00D15D
:103D3C0004780A4B1E78002E0EDD0023002002E0D2
:103D4C000133B34209DAEA5CA242F9D2CF5C002F0C
:103D5C00F6D1D8B21400F3E70020F0BD30000020FB
:103D6C0010B50100064B1C78002C07DD0023012048
:103D7C00CA5C10400133A342FADB10BD0120FCE702
:103D8C0030000020F0B5DE4657464E464546E0B5BD
:103D9C0091B006008A46002403942E22002104A828
:103DAC000FF031FF1A22002158480FF02CFF35007C
:103DBC00701E574B1C54574B1C5416267043564EB2
:103DCC0081190191012053469AB202E00130072873
:103DDC0010D04300CB5A002BF8D0DB089342F5D11E
:103DEC004B4B5344013B01221A70484B52461A70FC
:103DFC00C0B283E0494B1978002914DD0123444AF1
:103E0C00541EFF229046434A501E0022944602E064
:103E1C0001338B4207DC9D42FAD04246E2541A1819
:103E2C0066461670F4E700243B4B98460C2343443B
:103E3C009946374DD34603A8FFF792FF00282ED1A1
:103E4C0003A93348FFF76EFF0130C4B25C450BD0B9
:103E5C00671E03AB0122DA55162078434346C1187E
:103E6C00484403AABA4605E0DA465C4618E002313B
:103E7C008142E0D04B88002BF9D0DB08DBB2013B50
:103E8C00D65C002EF3D15646AE5D0136F6B2EF5C31
:103E9C00B742ECD91E4FFE541E4EF454E7E7DA46F7
:103EAC001C4B1B19013B1978002300290DD0174D11
:103EBC00184800E011001A000133DBB2AC54421870
:103ECC00013A12780C00002AF4D101200F4C104B4F
:103EDC0053441F00013F019902E0013007280CD028
:103EEC004300CB5A002BF8D03A78A218013A12783A
:103EFC00DB089A42F1D1C0B200E0002011B0F0BC56
:103F0C00BB46B246A946A046F0BDC0464063002061
:103F1C0094080020B0080020BC02002030000020D3
:103F2C00F0B5DE4657464E464546E0B583B0060032
:103F3C00594C5A4B220023CB23C2196811609B8821
:103F4C0093802000FCF7E2F882B201235B420093DD
:103F5C003333210030000AF0CBFA0124504B984641
:103F6C004D4D01277F4222004146280010F004FCF1
:103F7C002800FCF7CBF882B20097322329003000DE
:103F8C000AF0B6FA0134042CEDD101235B42009304
:103F9C0033330322434930000AF0AAFA424B1B7810
:103FAC00002B68D000239846404B994601277F424E
:103FBC003F4B9A462DE007231340D2085146364812
:103FCC0010F0DAFB344B9B461800FCF79FF882B2DA
:103FDC0000973223594630000AF08AFA0134042C37
:103FEC0008D06300EA5A002AE5D132492A4810F079
:103FFC00C3FBE7E70097322302222F4930000AF077
:10400C0077FA43460133DBB29846274B1B7843457E
:10401C0031D943465A1C204C4946200010F0ACFBC9
:10402C002000FCF773F882B2009732232100300095
:10403C000AF05EFA214B9B46162543465D435B46D0
:10404C00EB5A5900C91849001D4BC918052220000C
:10405C0010F0E6FB009732230522210030000AF015
:10406C0047FA009732230122164930000AF040FA31
:10407C005D440124B5E701235B42009333330122F5
:10408C00114930000AF034FA03B0F0BCBB46B2461A
:10409C00A946A046F0BDC04628080020A885010806
:1040AC00BC850108CC95010830000020C4850108AE
:1040BC00D4850108D0850108E0860108BC020020E7
:1040CC00E88C0108B885010854B20108F0B5D64651
:1040DC004F464646C0B582B08046314C314B22002B
:1040EC0023CB23C223CB23C21B6813602000FCF715
:1040FC000DF882B201235B4200933333210040461A
:10410C000AF0F6F9284B1B780127002B2CD0274EF0
:10411C00274B994624E0224B9A4623003A00494605
:10412C00504610F029FB5046FBF7F0FF82B20123FA
:10413C005B4200933333514640460AF0D9F90A2CBE
:10414C0008D021000134AA5B80231B020B411342CF
:10415C00F5D0E0E70137FFB2134B1B78BB4203D31A
:10416C0000247D1E6D00ECE70D4C124B220023CB7E
:10417C0023C223CB23C203CB03C22000FBF7C6FF11
:10418C0082B201235B4200933333210040460AF094
:10419C00AFF902B0E0BCBA46B146A846F0BDC04685
:1041AC0028080020DC850108300000204067002032
:1041BC00F88501080C860108F0B5D6464F464646F0
:1041CC00C0B582B081460AF059FC0400002303708C
:1041DC00914B1A78914D9249280010F0CDFA290094
:1041EC00200010F0E9FA8F4B1A788F49280010F054
:1041FC00C3FA2900200010F0DFFA06230093043BD9
:10420C0000228A49280010F0B7FA2900200010F08B
:10421C00D3FA874A8749280010F0AEFA290020000B
:10422C0010F0CAFA844A8549280010F0A5FA290032
:10423C00200010F0C1FA824B2A0043CB43C219680C
:10424C001160998891809B7993712900200010F05E
:10425C00B3FA01257B4B9846704F7B4B9A460EE088
:10426C006E4B7A4A116819609188998092799A718B
:10427C006A49200010F0A0FA0135042D39D02A002B
:10428C004146380010F078FA3900200010F094FA0A
:10429C005346EB5C042BEBD85346EB5C9B006C4A0F
:1042AC00D3589F465D496B4B0A0043CB43C203CBAB
:1042BC0003C21B781370DBE7584A674B43CB43C2EE
:1042CC00D6E75649654B0A0043CB43C243CB43C2A6
:1042DC001B881380CCE75149614B0A0043CB43C286
:1042EC0043CB43C219681160998891809B79937173
:1042FC00BEE74A495B4B0A0061CB61C261CB61C22C
:10430C00200010F059FA584F0125444E0EE0434B53
:10431C009A462A005549180010F02EFA51462000F2
:10432C0010F04AFA01353837072D17D03B68002BAF
:10433C00EDD0786A06F0F8F98246AB004C4AD058BA
:10434C0006F0F2F9009053462A004A49300010F06A
:10435C0013FA3100200010F02FFAE3E72000FBF7EE
:10436C00D5FE2018032244490FF044FC2000FBF733
:10437C00CDFE20181D2241490FF03CFC2000FBF71C
:10438C00C5FE804600253E4E234F0CE0234B9A463B
:10439C002A003C49180010F0EFF95146200010F0AB
:1043AC000BFA032D0BD0290001353B78013B5B0048
:1043BC009A5B80231B020B411342F2D0E6E72000EC
:1043CC00FBF7A4FE43461E04360CB04210D020006E
:1043DC00FBF79CFE2018032227490FF00BFC4B46E1
:1043EC00002B0BD102B0E0BCBA46B146A846F0BDDA
:1043FC002018052224490FF0FDFBE8E72000FBF70D
:10440C0085FE82B201235B42009333332100484680
:10441C000AF06EF8E6E7C0460E08002028080020D7
:10442C002C860108B8020020488601086486010821
:10443C008486010890860108A8860108B4860108C4
:10444C00D0860108E486010878080020EC86010873
:10445C00E8870108F48601080C8701081887010811
:10446C003487010854870108F41100206C87010877
:10447C00D00C002088870108E0860108B887010865
:10448C0040670020D8870108E0870108F0B5C646D0
:10449C0000B506002949FBF72FFE002810D028494B
:1044AC003000FBF729FE002845D033789846232BA3
:1044BC000BD0244B1F78002F2AD0234D00241CE056
:1044CC00224B187880BCB846F0BD701C0FF045FB31
:1044DC00C3B2002B03D01B4A12789A4206D21B4A55
:1044EC00127866209A42EDD118B2EBE718B2E9E7E0
:1044FC000134E4B20A35BC420AD029003000FBF783
:10450C00FBFD0028F4D14346002BF1D020B2D9E7B3
:10451C000F4F002539003000FBF7EEFD002805D0C9
:10452C0001350A370A2DF5D16420CBE72C02FE2089
:10453C00204300B2C6E7FF20C4E7C046FC87010851
:10454C000088010830000020000700200E08002021
:10455C00F8050020F0B583B001900E00284C250022
:10456C00103521003000FBF7C7FD00283FD0043484
:10457C00AC42F6D1234B1F78012F0BDD224C0125C9
:10458C0021003000FBF7B8FD002832D001350A3489
:10459C00BD42F5DB1D4C2500643521003000FBF7D6
:1045AC00ABFD002828D00A34AC42F6D1184C194B7C
:1045BC001C601F0023681D682800FBF7A7FD020084
:1045CC002900300010F01BF9002817D064683C60FB
:1045DC00002CEFD1019B98009C46604440000E4F8C
:1045EC00C019310010F003F9FFF78EF802E0062035
:1045FC0000E0072003B0F0BD0720FBE70820F9E737
:10460C00C48C0108300000200A070020F8050020A7
:10461C00B00000207C08002000070020F0B5CE463A
:10462C0000B582B001900E00364F3D0000242900E9
:10463C003000FBF761FD002847D001340A350A2C05
:10464C00F5D1314C2500103521003000FBF754FD1D
:10465C00002850D00434AC42F6D12C4B1B78994630
:10466C00012B0BDD2A4C012521003000FBF744FD0A
:10467C00002842D001350A344D45F5DB254C264B3C
:10468C001C60994623681D682800FBF73FFD02005B
:10469C002900300010F0B3F8002830D064684B4685
:1046AC001C60002CEED13B78002B1BD001340A3758
:1046BC000A2CF8D1019F013F18497F000122A2402A
:1046CC007B5A13437B52002008E0019F013F1349A2
:1046DC007F000122A2407B5A13437B5202B080BC64
:1046EC00B946F0BDA00000194000064B1818310067
:1046FC0010F07DF8DEE70620F0E70720EEE7082053
:10470C00ECE7C046F8050020C48C010830000020FE
:10471C000A070020B0000020800800205C06002062
:10472C0010B582B01E200FF043FA04001E220021A7
:10473C000FF069FA08498B7D0A7D013A920007480F
:10474C001258088B0190497D00910549200010F00A
:10475C0013F8200002B010BD78620020988D01087B
:10476C00D48C010800B585B00A00074B19780123D9
:10477C000393023B02930193033300930B0003F06A
:10478C0021FE05B000BDC0460E08002030B587B034
:10479C0005000C00002304930393029301930093F0
:1047AC00002200210020FEF7F1FF6A1ED3009B1AA5
:1047BC00DB00144A9B58002B14D0621ED3009B1AAA
:1047CC00DB00104A9B58002B04D1280007F0F4F9A9
:1047DC00002013E0280007F0EFF9200007F0ECF9B7
:1047EC0000200BE0621ED3009B1ADB00054A9B588D
:1047FC00002B05D0200007F0DFF9002007B030BDFA
:10480C006820FBE7F411002030B50378002B0FD0A3
:10481C00084D032404E0017001300378002B07D00D
:10482C00EA5C22401900012AF5D120331900F2E785
:10483C0030BDC04605B50108F0B5CE46474680B53B
:10484C0089B00500DE4B1C78052C00D11AE2DD493D
:10485C00A3001A199200002050541A1992008A18B9
:10486C0050701819800002304018042200210FF0FB
:10487C00CAF92B78622B02D1AB782E2B32D0D24CCA
:10488C00290020000FF0B3FFD04D2900200010F0BC
:10489C0025FE04002900002010F020FE060029004F
:1048AC00002010F01BFE0500002C00D1ECE12000D4
:1048BC00FFF784F8041E00D194E1002E00D093E1A0
:1048CC006736002D00D0BAE1BD4D2B78BD499A005A
:1048DC00D0188000653E46540A18D47001332B70F2
:1048EC000026ACE16F78303FFFB20026032F00D9D1
:1048FC00A5E1B44AA3001919890001208854531862
:10490C0000225A709F70EE1C0732B14930000FF034
:10491C0076FF002824D1A3001C19A400A94B1C1954
:10492C000523E370FA00D219AA4B9B181B7A0122BB
:10493C0016001E401A4205D00026A14A13780133F6
:10494C0013707CE1012305930023049303930293DA
:10495C000193009300220121380008F03BFBECE7A7
:10496C000E229D4930000FF04AFF002820D1A300F1
:10497C001C19A400934B1C190623E370FA00D219DE
:10498C00944B9B181B7A022216001E401A4201D02F
:10499C000026D2E70123059300230493039302938B
:1049AC0001930093013A0021380008F013FBC4E78F
:1049BC000C228A4930000FF022FF00287BD1FA002C
:1049CC00D219844B9B189E78002E0FD0FA00D21966
:1049DC00804B9B18DE78002E29D0FA00D2197D4B23
:1049EC009B181E79002E44D00C26A6E7754B9846D2
:1049FC00A3001B199B0043440922DA7028000F30D6
:104A0C000FF0A5F8C3B26E4A11788A0052189200C2
:104A1C0042441371012205920022049203920292E5
:104A2C00019200920021380008F0D4FA85E7654B1A
:104A3C009846A3001B199B0043440A22DA702800F5
:104A4C000F300FF084F8C0B25D4B1A7893009B18AE
:104A5C009B00434418710123059300230493039393
:104A6C0002930193009000220021380008F0B2FA62
:104A7C0063E7544B9846A3001B199B0043440B223D
:104A8C00DA7028000F300FF062F8C0B24C4B1A7875
:104A9C0093009B189B00434418710123059300233A
:104AAC000493039302930190009300220021380099
:104ABC0008F090FA41E70D22494930000FF09FFEB3
:104ACC000026002800D038E7FA00D219414B9B1879
:104ADC005E79002E0FD0FA00D2193E4B9B189E79AE
:104AEC00002E2AD0FA00D2193A4B9B18DE79002EF0
:104AFC0044D00D2621E7334B9846A3001B199B008D
:104B0C0043440C22DA70280010300FF020F8C0B2A9
:104B1C002B4B1A7893009B189B004344187101236C
:104B2C0005930023049303930290019300930022B6
:104B3C000021380008F04EFAFFE6224B9846142369
:104B4C0099465C434444073BE370280010300EF058
:104B5C00FEFFC0B21A4B1B784A46534343441871AC
:104B6C00012305930021049103900291019100917E
:104B7C000B000A00380008F02DFADEE6114B9846BF
:104B8C00142399465C434444063BE37028001030E0
:104B9C000EF0DDFFC0B20A4B1B784A465343434428
:104BAC001871012305930490002103910291019146
:104BBC0000910B000A00380008F00CFABDE6C04664
:104BCC009F0900209462002004090020E886010857
:104BDC000096010858130020B48D0108C48D0108FB
:104BEC00D48D0108002E51D0002D51D02800FEF795
:104BFC00E5FE002829D0284B1D78284AAB0059190E
:104C0C00890004278F54591989005118CC70C87128
:104C1C00214C25783000FEF7DDFE204AAB005B19F5
:104C2C009B00D318587021788B005B189B00D3180D
:104C3C005B78002B2ED00131174B197000263000F9
:104C4C0009B0C0BCB946B046F0BD134B98461A78B3
:104C5C00124F9300991889000320C8557B18DC70FB
:104C6C0028000EF06FFFFEF703F9079043461B7800
:104C7C009800C01880000630C019042207A90EF055
:104C8C00B9FFC5E70E26DAE76726D8E76726D6E729
:104C9C006726D4E76726D2E79F090020946200209C
:104CAC00F8B50C00022817D0032803D001280FD028
:104CBC000020F8BD354B1A78013A93009B189B00E5
:104CCC00334AD31801221A7405F03AFB0020F0E79E
:104CDC000800FFF7B1FDECE72C4B1D78013DAB0054
:104CEC005B199B002A4AD318DE68002E32D03000A4
:104CFC00FBF70CFA07002000FBF708FA3918023111
:104D0C0030000FF0E9FC224EAB005D19AD007519B7
:104D1C00E8601E4D2A78013A93009B189B00F3180B
:104D2C007A1CD868801821000FF061FD2A78013AAE
:104D3C0093009B189B00F318DB681322DA552A7832
:104D4C00013A93009B189B00F618F368002B12D0C5
:104D5C000020AEE70800FBF7D9F901300EF028FF70
:104D6C00AB005D19AD000A4B5D19E86021000FF036
:104D7C003EFD00209DE7900080188000044A8018BA
:104D8C00142200210EF03FFF0E2092E79F09002015
:104D9C0094620020F0B5DE4657464E464546E0B5D7
:104DAC008BB00490039115001C000023079305227F
:104DBC00002108A80EF027FFD84B994629E1E91CE1
:104DCC000130FFF76DFF002805D1D44B02221A7079
:104DDC000D23237027E05222D14920000EF00AFF48
:104DEC00CE4B00221A701EE00622CE4928000FF08E
:104DFC0006FD00280BD0022E00D01AE1290002205B
:104E0C00FFF74EFF002824D10D2323700BE0C34B7A
:104E1C0000221A70C4490330FFF742FF4122C349F4
:104E2C0020000EF0E7FE2378002B00D1A8E1039BB5
:104E3C00002B00D1BFE100272000FBF767F982B2FD
:104E4C0001235B42009333332100049809F050FB9B
:104E5C00D4E05222B24920000EF0CCFEE3E79922B6
:104E6C00701C9200210009F07FFD0700C2E0272290
:104E7C00AF4920000EF0BEFED5E72522AD4920003B
:104E8C000EF0B8FECFE71A220021AB480EF0BBFEA5
:104E9C0001362800FBF73AF9070007A8FBF736F9AB
:104EAC00013F3A1A3100A5480FF0BAFC2800FBF775
:104EBC002DF9070007A8FBF729F93B1A9BB217221B
:104ECC00FF21404603F030FA992292002100300075
:104EDC0009F04AFD07002000FBF718F920181D22E5
:104EEC0097490EF087FE85E0059B1812C3B29A46CF
:104EFC00944B9B4652461A701A2200218E480EF093
:104F0C0082FE731C05932800FBF700F9060007A826
:104F1C00FBF7FCF8013E321A059988480FF080FC2B
:104F2C002800FBF7F3F8060007A8FBF7EFF8331A95
:104F3C009BB217225146404603F0F6F9824B1B7880
:104F4C00013B5B00814A9B5A5A4612781341DB079E
:104F5C0006D407AB22007E4920000FF00DFC49E07F
:104F6C00992292002100059809F0FEFC0700F0E759
:104F7C002800FBF7CBF8070007A8FBF7C7F8013FA1
:104F8C003A1A31006D480FF04BFC2800FBF7BEF8C5
:104F9C00060007A8FBF7BAF8013E361AB2B2172181
:104FAC00504603F0E9F9059A6A4920000FF0E4FB3A
:104FBC002378002B02D0039B002B08D12000FBF799
:104FCC00A5F80200002120000EF01DFE7CE0200060
:104FDC00FBF79CF882B20123009331332100049833
:104FEC0009F086FAEAE7992292002100280009F0DC
:104FFC00BBFC07002378002B00D07FE02000FBF7E0
:10500C0085F80200002120000EF0FDFD002F00D1DC
:10501C00BEE02800FFF7F8FB4B461E78002E00D0B0
:10502C00E2E603224C4928000FF0E9FB002800D1EE
:10503C00C5E62E2128000FF0CCFB061ED3D003387A
:10504C00032246490FF0DBFB0028CCD07378444A8E
:10505C00D35C5B07C7D4721B290007A80FF0E0FBD9
:10506C0007A8FFF713FA0590374A1278904690423A
:10507C0000D1F4E6642800D1F9E6662800D1FCE6FC
:10508C00FF2800D1FFE66B461B7D9A46FE2B00D114
:10509C002AE701360622334930000FF0B0FB002816
:1050AC0000D065E7304B00221A701921504603F0EE
:1050BC0063F9642009F0C3FB2C4B1A78224B187847
:1050CC000023514605F086FA274B1B78602B00D045
:1050DC00A9E6FA21890001200AF00CFF244B1B7869
:1050EC00002B00D19FE6234A138801331380059BC4
:1050FC002200214920000FF03FFB94E6039B002B7C
:10510C0000D17BE798E601235B42009333333822CE
:10511C001A49049809F0ECF946E0C046CC09002085
:10512C00E88D01083C8E0108C0850108448E0108F9
:10513C008C8E0108B48E010830050020D0060020AA
:10514C00DC8E01089E0900200E0800205C06002061
:10515C00FC8E0108308F0108E48D0108888E01084F
:10516C0005B50108288F0108F8610020B80200205D
:10517C0090080020E20F0020548F0108748F010862
:10518C002000FAF7C3FF0200002120000EF03BFDC7
:10519C000922002107A80EF036FD0B4B1B78002BC3
:1051AC0002D1039B002BAED10BB0F0BCBB46B24678
:1051BC00A946A046F0BD2000FAF7A8FF0200002186
:1051CC0020000EF020FDE3E7CC090020F0B5DE4610
:1051DC0057464E464546E0B587B00F2302AA944683
:1051EC00634400221A700121494201200AF082FE18
:1051FC0009F044FC8046E1231B035B4A92689A4207
:10520C000FD00124594E1D0003E00134E4B2042CEC
:10521C0007D03378A342F8D02900200009F0D8F940
:10522C00F3E7534B1A8853009B185B00514A9B18A9
:10523C00514A1278514C4D4D29780091504920001B
:10524C000FF09AFAA42228780A2392004D4909F00B
:10525C007BF92000FAF75AFF82B228780A23210042
:10526C0009F072F90026414B9946474B9B461D00AD
:10527C0001239A460293039657E00F2102AEB446DF
:10528C0061440A7062001219920140498A18002187
:10529C00D1543D4A13550F2702AB9C4667440A2351
:1052AC005246390009F050F93B780D2B1ED00A2BD1
:1052BC0039D0082B4CD07F2B4AD01A00203A5E2ACA
:1052CC0031D8039931292EDC314A53544E1C73B218
:1052DC00039328E02E55029BCA5C002ACDD1BF2B2C
:1052EC00F8D001339BB2BF2BF6D9D4E71F4B1878FB
:1052FC000A230222274909F027F9039B002B22D00D
:10530C00234E1A4B1878434632005146FFF742FDA4
:10531C00310021480FF06BFA3222002130000EF0E0
:10532C0072FC002303930BF09FF84B461878441E35
:10533C005B461B5DBF2BAED8610009198901134A6E
:10534C0051180026C8E7144911480FF050FAD7E756
:10535C00039B002BE7DD013B5BB2190003930C4B65
:10536C0000225A54DFE7C04678620020B8020020C1
:10537C0064000020E88C01080E080020A009002021
:10538C00B08F0108DC8F01088C0C00204C0A002027
:10539C00D00800200CA801086C09002070B50C0086
:1053AC001C4B1A78013A93009B189B001A4AD3188D
:1053BC00DB68002B2CD0194B1B68002B14D0174B1F
:1053CC001E683378002B12D0132130000FF001FA35
:1053DC00051E11D0821B310020000FF021FA01357F
:1053EC000E4B1D60012070BD0C4B1860E7E70B4B9A
:1053FC0000221A600020F6E7310020000FF0F7F9C8
:10540C002000FAF783FE3618044B1E600120EAE7F1
:10541C000020E8E79F09002094620020C8090020C2
:10542C00F0B583B0040083001B189B003E4A9B5CC4
:10543C00012B21D00020032B30D13B4DA60033197A
:10544C009B00EB18DA78013A53009B189B00374A03
:10545C009B581F683119890006314919042201A88B
:10546C000EF0C8FB3619B600AD196B78062B53D865
:10547C009B002F4AD3589F462B4A800003199B0050
:10548C00D3189978CB005B180019800012182949A1
:10549C00585CD378C01A43425841C0B203B0F0BD37
:1054AC00391C0198FBF70EF8431E9841F6E7391C9E
:1054BC000198FBF70DF8431E9841EFE7391C019852
:1054CC00FBF71AF8002829D00021381CFAF7FAFF4C
:1054DC0043425841E2E7391C0198FBF703F8431E9D
:1054EC009841DBE7391C0198FBF710F8002817D01E
:1054FC000021381CFAF7E6FF43425841CEE7391C2D
:10550C000198FAF7DFFF00280CD10021381CFAF7BC
:10551C00D9FF43425841C1E70020BFE70020BDE757
:10552C000020BBE70020B9E794620020980000201F
:10553C007092010858130020F8B5CE46474680B546
:10554C0009F09CFA0600204B1B78002B36D0002467
:10555C001E4F1F4B98461AE01E4B187833004246DC
:10556C000021FFF717FC3000FAF7D0FD02000021F4
:10557C0030000EF048FB4946E868FFF70FFF0028A3
:10558C00EAD10134A4B2104B1B78A34216D9A30064
:10559C001B199B00FB181B7C002BF2D0E0B2FFF711
:1055AC003FFF0028EDD00C4B20221A70084B994677
:1055BC00A3001D19AD00054B5D19DCE70020C0BC34
:1055CC00B946B046F8BDC0469F0900209462002041
:1055DC0038090020B8020020F86100200020704734
:1055EC0070B582B00500140000230193009301AA4A
:1055FC000121200009F046FA0023C356702B0CD071
:10560C006A460221200009F03DFA0EF0A6FA132298
:10561C000F4928000EF0EEFA16E001300EF09DFA5C
:10562C0006006A460221200009F02CFA0EF095FAC9
:10563C000400F0B2210008F0CBFFFF23334022001E
:10564C00044928000FF098F8002002B070BDC04645
:10565C00B49201088C92010810B5034B1A880349C7
:10566C000FF08AF8002010BDCCF7FF1FC89201087C
:10567C0010B582B0040010000023019300230093A6
:10568C0001AA012109F0FEF90378323B012B07D95D
:10569C0015220B4920000EF0ADFA002002B010BD0F
:1056AC000EF05BFAC0B2694607F094FF0098FDF764
:1056BC0097FB02000B00034920000FF05DF8ECE7AC
:1056CC000C930108E892010810B582B00400002385
:1056DC0001930093694601A807F0BAFE01A92000C6
:1056EC000FF085F80098FDF77BFB02000B000349D7
:1056FC0020000FF041F8002002B010BD24930108E7
:10570C0010B582B00400002301930093694601A8F0
:10571C0007F09EFE01A920000FF069F80198FDF733
:10572C005FFB02000B00034920000FF025F800205E
:10573C0002B010BD4C93010870B584B00600140083
:10574C000023039302930023019303AA0121200059
:10575C0009F098F9050002AA0221200009F092F93B
:10576C0004002B78323B012B07D915221949300044
:10577C000EF040FA002004B070BD28000EF0EDF9D8
:10578C00C5B215492000FAF7B7FC002805D013491B
:10579C002000FAF7B1FC002816D10F4C210028008C
:1057AC0007F0F8FF01AA2100280008F025F801A94C
:1057BC0030000FF01CF80198FAF7DAFE82B20849B3
:1057CC0030000EF0D9FFD5E71222064930000EF05A
:1057DC0011FACFE70C930108709301087493010838
:1057EC007C9301088C930108F0B5CE46474680B5F2
:1057FC0085B00500100000230393624B1A7802ABAE
:10580C001A7003AA012109F03DF904005E49FAF768
:10581C0073FC002875D15D4B1A785D4B9B18013BCE
:10582C001E780124594B99463EE022005949280024
:10583C000EF0A2FF2800FAF769FC82B2534B1878DD
:10584C00642300935A3B290008F052FE542252491B
:10585C0028000EF0CFF92800FAF758FC82B24B4B17
:10586C001878642300935A3B290008F041FE013656
:10587C00464B1A78013A53009B189B01474AD318A0
:10588C009B5D002B0DD19046404F01200AF056FF36
:10589C003A78013A53009B189B0143449B5D002BC3
:1058AC00F3D00134042C35D0E7B24B461B78BB4205
:1058BC00F7D00EF0D3FE6B461872642300935A3B5C
:1058CC00012202A9380008F013FE380008F0FAFD96
:1058DC0003689B8C6A46127ADBB29A42A5D02200EE
:1058EC002F4928000EF048FF2800FAF70FFC82B26F
:1058FC00264B1878642300935A3B290008F0F8FDD6
:10590C00A4E70023E356702B0AD00F222549280068
:10591C000EF070F9002005B0C0BCB946B046F0BD21
:10592C00601C0EF01AF90400C6B2731E022B05D9C6
:10593C001B221D4928000EF05DF9EBE70EF08EFEE0
:10594C006B46187264230093323B012202A930008B
:10595C0008F0CEFD002008F0B5FD03689B8C6A466C
:10596C00127ADBB29A4206D0FF2222400C49280060
:10597C000EF002FFCEE7FF222240064928000EF06F
:10598C00FBFEC7E75094010800880108B80200200C
:10599C008C0C0020A0930108D09301084C0A002025
:1059AC00BC9301082494010834940108F0B583B029
:1059BC000500140000230193009301AA012120008B
:1059CC0009F060F80023C356702B0ED06A460221F2
:1059DC00200009F057F80023C356702B26D00F2255
:1059EC00194928000EF006F92BE001300EF0B5F83D
:1059FC000600C7B26A460221200009F043F80023D2
:105A0C00C356702BEBD101300EF0A7F80400C1B2D5
:105A1C003800FEF7BBFE00280CD1FF2223001340F8
:105A2C0032400A4928000EF0A7FE0AE001300EF0C1
:105A3C0094F8D4E76728D2D01922054928000EF033
:105A4C00D9F8002003B0F0BD249401085494010847
:105A5C0074940108F0B583B0050014000023019381
:105A6C00009301AA0121200009F00CF80023C35671
:105A7C00702B0ED06A460221200009F003F8002397
:105A8C00C356702B26D00F22194928000EF0B2F8FD
:105A9C002BE001300EF061F80600C7B26A46022115
:105AAC00200008F0EFFF0023C356702BEBD1013020
:105ABC000EF053F80400C1B23800FEF753FE002874
:105ACC000CD1FF222300134032400A4928000EF06B
