:020000040800F2
:1000000000800020A9DE000835DF0008B5D2000816
:1000100000000000000000000000000000000000E0
:1000200000000000000000000000000091FB00083C
:1000300000000000000000001DFC0008A9D200081C
:1000400035DF000835DF000835DF000835DF000840
:1000500035DF000835DF000835DF000835DF000830
:1000600035DF000831D300083DD300087DD30008F8
:1000700035DF000835DF000835DF000835DF000810
:1000800035DF000835DF000835DF000835DF000800
:1000900035DF000835DF000835DF000835DF0008F0
:1000A00035DF000835DF000835DF0008EDD2000835
:0C00B000FDD200080DD3000835DF000869
:1000BC0010B5064C2378002B07D1054B002B02D032
:1000CC00044800E000BF0123237010BDF80200209B
:1000DC0000000000C0790108044B10B5002B03D0C0
:1000EC000349044800E000BF10BDC04600000000FA
:1000FC00FC020020C079010802780B78002A03D09A
:10010C00013001319A42F7D0D01A70470023C25CFB
:10011C000133002AFBD1581E7047000002B471460F
:10012C0049084900095C49008E4402BC7047C0462E
:10013C0003B47146490840004900095E49008E44E9
:10014C0003BC7047002243088B4274D303098B42D3
:10015C005FD3030A8B4244D3030B8B4228D3030C8B
:10016C008B420DD3FF22090212BA030C8B4202D32D
:10017C001212090265D0030B8B4219D300E0090A55
:10018C00C30B8B4201D3CB03C01A5241830B8B425E
:10019C0001D38B03C01A5241430B8B4201D34B0347
:1001AC00C01A5241030B8B4201D30B03C01A5241AC
:1001BC00C30A8B4201D3CB02C01A5241830A8B4231
:1001CC0001D38B02C01A5241430A8B4201D34B021A
:1001DC00C01A5241030A8B4201D30B02C01A52417E
:1001EC00CDD2C3098B4201D3CB01C01A5241830932
:1001FC008B4201D38B01C01A524143098B4201D36C
:10020C004B01C01A524103098B4201D30B01C01A96
:10021C005241C3088B4201D3CB00C01A5241830810
:10022C008B4201D38B00C01A524143088B4201D33D
:10023C004B00C01A5241411A00D20146524110469D
:10024C007047FFE701B5002000F0F0F802BDC04692
:10025C000029F7D076E7704703460B437FD4002282
:10026C0043088B4274D303098B425FD3030A8B423E
:10027C0044D3030B8B4228D3030C8B420DD3FF22A8
:10028C00090212BA030C8B4202D31212090265D076
:10029C00030B8B4219D300E0090AC30B8B4201D329
:1002AC00CB03C01A5241830B8B4201D38B03C01A70
:1002BC005241430B8B4201D34B03C01A5241030BE7
:1002CC008B4201D30B03C01A5241C30A8B4201D398
:1002DC00CB02C01A5241830A8B4201D38B02C01A43
:1002EC005241430A8B4201D34B02C01A5241030ABA
:1002FC008B4201D30B02C01A5241CDD2C3098B429F
:10030C0001D3CB01C01A524183098B4201D38B011B
:10031C00C01A524143098B4201D34B01C01A5241BE
:10032C0003098B4201D30B01C01A5241C3088B4203
:10033C0001D3CB00C01A524183088B4201D38B00EE
:10034C00C01A524143088B4201D34B00C01A524190
:10035C00411A00D201465241104670475DE0CA0F67
:10036C0000D04942031000D34042534000229C4627
:10037C0003098B422DD3030A8B4212D3FC22890131
:10038C0012BA030A8B420CD3890192118B4208D307
:10039C00890192118B4204D389013AD0921100E069
:1003AC008909C3098B4201D3CB01C01A524183097D
:1003BC008B4201D38B01C01A524143098B4201D3AA
:1003CC004B01C01A524103098B4201D30B01C01AD5
:1003DC005241C3088B4201D3CB00C01A524183084F
:1003EC008B4201D38B00C01A5241D9D243088B42A5
:1003FC0001D34B00C01A5241411A00D20146634648
:10040C0052415B10104601D34042002B00D54942AB
:10041C00704763465B1000D3404201B5002000F0EA
:10042C0005F802BD0029F8D016E770477047C046A2
:10043C008446101C62468C46191C634600E0C0467C
:10044C001FB501F023FC002801D40021C8421FBDB8
:10045C0010B501F06DFB4042013010BD10B501F03C
:10046C0015FC002801DB002010BD012010BDC0468A
:10047C0010B501F00BFC002801DD002010BD01209F
:10048C0010BDC04610B501F08FFB002801DC002028
:10049C0010BD012010BDC04610B501F085FB002831
:1004AC0001DA002010BD012010BDC0468446081C96
:1004BC006146FFE71FB500F061F9002801D4002167
:1004CC00C8421FBD10B500F0E5F84042013010BD28
:1004DC0010B500F053F9002801DB002010BD0120FD
:1004EC0010BDC04610B500F049F9002801DD002010
:1004FC0010BD012010BDC04610B500F0F3F8002867
:10050C0001DC002010BD012010BDC04610B500F06C
:10051C00E9F8002801DA002010BD012010BDC0460A
:10052C00994201D1801A04D002D201204042704776
:10053C0001207047F0B515042D0C0F0001002E00A2
:10054C00C64684460004140C000C090C46434D436B
:10055C00604361434019340C241800B5A54203D9FB
:10056C008020400280464144250C6D186146594359
:10057C007A43300449192404000C2018891880BCD3
:10058C00B846F0BD9E2110B5C905041CFFF7BEFF8F
:10059C00002803D1201C00F01DFC10BD9E21201C46
:1005AC00C90500F04FFA00F015FC80231B069C4691
:1005BC006044F2E770B500220C4B04000D00FFF70D
:1005CC006BFF002804D12000290002F0EBF970BD6C
:1005DC00064B00222000290001F034FE02F0E2F963
:1005EC0080231B069C466044F1E7C0460000E041B6
:1005FC0070B505000C000022002328002100FFF735
:10060C002DFF002808D12800210000F00FF802006F
:10061C000B001000190070BD80231B06E118280088
:10062C0000F004F8002342428B41F2E770B500223F
:10063C000B4B0D00040001F099FBFFF7BBFF06000C
:10064C0002F016FA0022074B01F090FB02000B009F
:10065C002000290001F0F6FDFFF7ACFF310070BD62
:10066C000000F03D0000F04170B50600080002F0FB
:10067C00CFF90022064B01F079FB0D00040030008D
:10068C0002F0F6F92B00220000F000FC70BDC04611
:10069C000000F04170B542004E024C0045026D0A5C
:1006AC00120EC30F760A240EC90FFF2A0FD0FF2C8F
:1006BC0011D00120A24200D070BDB542FCD18B42BA
:1006CC000DD0002AF8D12800451EA841F4E70120DE
:1006DC00002DF1D1EBE70120002EEDD1E9E7002050
:1006EC00EAE7C046F0B5420046024D024C00C30F8B
:1006FC00760A120E6D0A240EC80FFF2A1FD0FF2C8B
:10070C0010D0002A1FD171427141002C01D1002D53
:10071C001ED000290ED183421ED00221581E084043
:10072C000138F0BD002D26D1002AF4D1714271415F
:10073C000029F0D00028F4D101204042F1E7002E2E
:10074C0019D1FF2CEED0002CE5D1002DE3D1E4E73C
:10075C000020002EE5D0E0E7A24205DCEADBAE4249
:10076C0002D8E7D30020DCE7414241414842022154
:10077C0008400138D5E702204042D2E7F0B54200EC
:10078C0046024D024C00C30F760A120E6D0A240E5F
:10079C00C80FFF2A0DD0FF2C0FD0002A23D1714295
:1007AC007141002C0FD1002D0DD10020002E14D042
:1007BC000DE0002E10D1FF2C15D1002D0CD1002AEC
:1007CC0003D171427141002908D1834210D002211A
:1007DC00581E0840013800E00220F0BD0028FCD172
:1007EC0001204042F9E7002CEFD1002DEDD1EEE7CE
:1007FC00A24205DCF2DBAE4202D8EFD30020ECE7DC
:10080C00414241414842022108400138E5E7C046D7
:10081C00F8B557464E464546DE464402E0B545001F
:10082C000F1C640A2D0EC60F002D47D0FF2D4DD086
:10083C00002380209A469B46E400C00404437F3D7D
:10084C007802430A99467A00FB0F9846120E4B46E3
:10085C0044D0FF2A11D0D8008023DB0403439946EF
:10086C0000207F3AAD18474653467740691C0F2B42
:10087C003FD8724A9B00D3589F46FF35002B00D0BF
:10088C0079E0524602231A4392460220EBE7474690
:10089C004C4683465B46022B28D0032B00D1C6E086
:1008AC00012B4FD100200024C005FF072043384303
:1008BC00F0BCBB46B246A946A046F8BD002C71D18F
:1008CC0004239A46033B00259B46B9E7002C63D1D1
:1008DC0008239A46063BFF259B46B1E7002B50D1D7
:1008EC00524601331A4392460120BCE7FF200024F4
:1008FC00DAE74846260C2404220C0404240C4B464C
:10090C0020001B0C504374435A435E431219030CD2
:10091C009B189C4203D980225202944666440004E0
:10092C001A04000C12189401601E84411B0C920EC8
:10093C009B1914439B011C431B0172D501206308B6
:10094C0004401C4308007F3000283CDD630704D0C2
:10095C000F232340042B00D00434230103D5803112
:10096C000800374B1C40FE28C0DCA401640AC0B24E
:10097C009AE737008EE7524603231A439246032028
:10098C0071E7484602F06AF94A46431F9A402D1A0D
:10099C0091460020763D66E70C239A46093BFF25DD
:1009AC009B464DE7200002F059F97625431F9C40E9
:1009BC0000236D429A469B462D1A41E7802400275E
:1009CC00FF20E40370E701231B1A1B2B00DD69E7F2
:1009DC009E3120008C40D840631E9C410443630729
:1009EC0004D00F232340042B00D0043463011AD508
:1009FC000120002458E78020C003044209D04B4654
:100A0C00034206D14C46044364024746FF20640A65
:100A1C004AE78020C003044364023700FF20640AC5
:100A2C0042E729008EE7A4010020640A3CE78020FD
:100A3C00C00304436402FF20640A35E7E879010827
:100A4C00FFFFFFF7F0B54646D6464F4643025B0A1A
:100A5C00DA0094464A02C0B54400560A051CB0465A
:100A6C00240E4E0092091F0020009246ED0F360E08
:100A7C00C90FFF2E00D17FE0012251408D4251D091
:100A8C00A21B9146002A00DC7EE0002E00D199E0EA
:100A9C00FF2C00D18CE080235246DB041A43924693
:100AAC004A4601231B2A08DC53462021D340891ACD
:100ABC0052468A40511E8A4113436246D31A5A0148
:100ACC0000D4F3E09B019E09300002F0C7F8053812
:100ADC008640844200DDF7E03200041B2020013404
:100AEC00E240041BA64033005E1EB34100241343B6
:100AFC005A0704D00F221A40042A00D004335A019A
:100B0C0000D4D6E0621CFE2C00D1DAE09B015F0A17
:100B1C00D0B2C0053843ED072843E0BCBA46B14615
:100B2C00A846F0BDA21B9146002A63DD002E00D121
:100B3C0099E0FF2C3CD080235246DB041A439246AA
:100B4C004A4601231B2A08DC53462021D340891A2C
:100B5C0052468A40511E8A41134363445A0100D4C1
:100B6C00A4E00134FF2C00D1ABE0012297491A40DC
:100B7C005B080B401343BBE7002A32D08D4235D0C3
:100B8C00FF2252429146A1444A46002A51D0301BC2
:100B9C00002C00D09CE06346002B00D1DFE0013834
:100BAC00002800D1F7E0FF2E00D099E00D0043465D
:100BBC00002B00D185E08027FF031F437F02FF201D
:100BCC007F0AA6E75246002A74D001225242904670
:100BDC00C1444A46002A00D1C8E0FF2C00D05FE790
:100BEC00E6E701225140A94200D049E7FF225242D8
:100BFC009146A1444A46002A43D0311B002C00D117
:100C0C008CE0FF2E00D192E080236246DB041A4375
:100C1C00944601231B2909DC202063466246CB4005
:100C2C00411A8A401100481E81410B433400534441
:100C3C0094E7FE22661C324264D1002C00D082E084
:100C4C006346002B00D1ABE05346002B00D160E78C
:100C5C00634652469B1A5A0100D4AAE06346524698
:100C6C000D00D31A44E75246002A23D001225242E7
:100C7C009046C1444A46002A75D0FF2C00D05FE74D
:100C8C0096E7FE260134264253D1002872D16346E2
:100C9C00002B00D193E05346002B00D139E763447D
:100CAC0000245A0102D54A4A013413405A0700D095
:100CBC0020E7DB08FF2C00D17AE75B025F0AE0B289
:100CCC0027E7FF20002724E7414B241A33400FE786
:100CDC00FF2E00D16AE780236246DB041A43944658
:100CEC0001231B2809DC202463466246C340201ADA
:100CFC0082401000441EA041034352460D003400B4
:100D0C00D31ADCE6634652469E1A730117D4002EA2
:100D1C0000D0D9E6002500200027FAE66346002B18
:100D2C0044D0013900294CD0FF2E00D071E7434646
:100D3C003EE7FF2CC5D0524662445308B6E76346E3
:100D4C000D00D61AC0E66246002A16D15346002B77
:100D5C0000D02BE780270025FF20FF03D9E60D00EC
:100D6C0043463400A6E753466344F7E663465246CF
:100D7C009B1AA4E66246002AD9D05246002A00D11A
:100D8C0016E78022D203134200D111E740461042ED
:100D9C0000D00DE70AE752460D003400D31A8EE658
:100DAC005346002B08D00D004746B2E643463400AC
:100DBC0080E7002B00D079E700250027A9E64746FD
:100DCC00A7E6534634006344C8E6C046FFFFFF7DE8
:100DDC00FFFFFFFB41024200C30F490A0020120E25
:100DEC007E2A03D99D2A02D9094A98187047802077
:100DFC0000040143952A07DC9620821AD140484210
:100E0C00002BF3D10800F1E7963A9140F7E7C04682
:100E1C00FFFFFF7F70B5051E0ED001F01FFF9E2354
:100E2C0004001B1A962B0CDC082801DD083CA5409D
:100E3C006D026D0AD8B201E000200025C0052843E0
:100E4C0070BD992B09DD020029001B3291404A1E0E
:100E5C0091410522121AD5400D43052C01DD621F6C
:100E6C0095402900084E31406A0709D00F202840D0
:100E7C00042805D004314A0102D59F2331401B1BA5
:100E8C0089014D0AD8B2D9E7FFFFFFFBF0B54F46F9
:100E9C00D64646460D0001001800C0B517002B03BE
:100EAC005A0A4B0F1343CA00914602036E004100CD
:100EBC00520AEC0F7D0F1543760D490DC00F82467B
:100ECC00AC46FF00721A844200D198E0002A00DC84
:100EDC0081E0002900D1B6E0C9498E4200D172E10F
:100EEC0080212800090408438446382A00DD5EE18D
:100EFC001F2A00DDEEE1202039006546801A87406C
:100F0C00D14085400D4339004F1EB9416746D7404B
:100F1C002943DB1B4A46551AA945894149425B1AAC
:100F2C00984643461B0200D4CCE043465B025B0A66
:100F3C0098464346002B00D12CE1404601F08EFE32
:100F4C0001000839202228004346521A8B40D04019
:100F5C008D4003438E4200DD17E18E1B721C1F2A4D
:100F6C0000DDA7E1202118002E00891A8D40884051
:100F7C00D640D340691E8D41304398460026054328
:100F8C006B0709D00F232B40042B05D02B1DAB4234
:100F9C00AD416D42A8441D0043461B0200D494E0B1
:100FAC00974B721C9A4200D19DE04146954BED083F
:100FBC0019400B00520549075B0229431B0B520DCC
:100FCC0012051343E407234308001900E0BCBA469A
:100FDC00B146A846F0BD002A43D08A1B002E00D093
:100FEC002AE14C461C4300D1D1E1541E012A00D108
:100FFC001FE2834DAA4200D172E2220023E1002AB3
:10100C0000DC98E0002942D07D498E4200D1DAE024
:10101C0080212800090408438446382A00DD29E190
:10102C001F2A00DC87E1110065462039CD40202ABB
:10103C0004D040206146821A91400F4339004F1E64
:10104C00B9410D431BE12900394300D1B5E0511ED4
:10105C00012A00D1ABE16A48824200D1B2E10A0018
:10106C0043E76949751C0D4200D0CFE0002E00D03B
:10107C0093E14946194300D1D1E16146394300D08F
:10108C00E3E149465807C9080143DB0826E029007B
:10109C00394300D191E0511E012A05D058488242B3
:1010AC0000D18FE10A00B8E73D004D444D45894120
:1010BC006344984649428844434602261B0200D5A5
:1010CC00EBE0013E6B0700D05CE74346E9085A07AA
:1010DC0011433200DB084A48824221D01B035205DF
:1010EC001B0B520D6CE70023002169E72A003A43E1
:1010FC0069D04A465807D108DA0880231B030843F5
:10110C001A4207D02900ED081D4203D12A00FF081E
:10111C0048073843430FC1005B07C9081943130044
:10112C000A001A4300D113E28022120313431B035B
:10113C00334A1B0B44E7002A4BD08A1B002E00D1EC
:10114C00E7E02F48814200D195E180200004034361
:10115C00382A00DD43E11F2A00DDDBE120201D00E1
:10116C004E46801A8540D64035434E468640300068
:10117C00D340461EB0419C440543ED19BD429B41F2
:10118C005B42634498460E007FE01E4A761A134079
:10119C009846F5E6280001F061FD010018311F2981
:1011AC0000DCCFE62B00083883400025D2E66246EF
:1011BC003A4311004F1EB941ACE649465807C908DD
:1011CC000143DB0887E749465A07C9081143DB0886
:1011DC00A6E70D49701C084200D0BBE0002E00D0E1
:1011EC0014E14946194300D175E12900394300D077
:1011FC007EE149465807C9080143DB086EE7C04643
:10120C00FF070000FFFF7FFFFE0700004946CD1BD4
:10121C006146581AA9458941494288460100404611
:10122C00091A8846090200D5A6E04146294300D098
:10123C007FE60023002451E7C74CA14200D1C7E050
:10124C00802424042343382A54DC1F2A00DDCCE0FC
:10125C0020244846A41A1D004E46A040D640A54066
:10126C000400D34062463543661EB441D31A9C46F3
:10127C00254344E062463A4315006F1EBD414D4480
:10128C004D45894149428846984443461B0200D447
:10129C0018E7B14B01369E4249D04246AF4B012173
:1012AC001A4013006A080D401543D9075B0898468D
:1012BC000D4365E618001F3EF040202A03D0402164
:1012CC008A1A93401D43691E8D41002300269846BF
:1012DC000543F7E6110065462039CD40202A04D09D
:1012EC0040206146821A91400F4339004F1EB9418C
:1012FC0029430FE64A4613431D006B1E9D417D1B7F
:10130C00AF429B4162465B42D31A984654460E004C
:10131C0007E64846184300D1B3E0501E012A00D11D
:10132C000DE18D4DAA4200D1A5E0020010E732007C
:10133C000023002144E620213800891A65468F409D
:10134C008D40D040791E8F4105433D436746D740C1
:10135C00DB1994E7804A904200D1ECE03900494413
:10136C0049459241634452429B18DD0749085B088A
:10137C00984606000D43A5E64A46BD1AAF42894180
:10138C0062464942D31A5B1A98465446D1E56C071B
:10139C00F9082143EB0804009DE64A461A4375D12F
:1013AC006146394314D1802300241B03BCE64A4612
:1013BC00D51BA9458941624649429B1A5B1A98463E
:1013CC000126AEE54A46D1085A071143DB08A7E6C9
:1013DC006346F9085A0754461143DB08A0E64A460F
:1013EC0013431D006B1E9D41C7E614001E00203CDC
:1013FC00E640202A05D04024A21A93404A461A43BC
:10140C0091464D466B1E9D41354378E74A461A433B
:10141C0000D06BE66B07F9081943EB0880E66146D0
:10142C00394354D06346F9085C072143DB080400B8
:10143C0054E64A46BD1AAF42894162464942D31A24
:10144C005B1A9846040001266BE54A46D51BA94554
:10145C008941624649429A1A521A9046120232D572
:10146C004A46BD1AAF42894162464942D31A5B1AB9
:10147C009846040084E56346F9085A071143DB08D3
:10148C004EE6F90868070143EB0824E662463A4346
:10149C0000D198E64A46D1085A071143DA0880234E
:1014AC001B031A4208D06046C5081D4204D154469D
:1014BC002A00F908430719434B0FC9005B07C908F9
:1014CC00194313002CE64146294300D0FAE50023CA
:1014DC000A00002402E66B07F9081943EB08FDE546
:1014EC006346F9085B07194363460400DB0817E6FB
:1014FC003D004D4463444D458941984649428844DA
:10150C0043461B0200D4DDE54246144B01261A402B
:10151C009046D7E510001E002038C640202A05D082
:10152C004020821A93404A461A4391464D466B1E00
:10153C009D41354321E602000023002140E54A4647
:10154C00D519BD4289416344984649428844B3E564
:10155C000021014A0B0033E5FF070000FFFF7FFF6E
:10156C00F0B557464E464546DE46E0B58146050089
:10157C000C03480092461F0085B0240B400DCE0F83
:10158C00002859D0874B984200D198E06B0FE400AB
:10159C001C4380231B0423439846834BED009B463E
:1015AC0000239946834400933C037B005046240B54
:1015BC005B0DFF0F002B67D07A4A934218D07A4903
:1015CC00420F8C46E40059461443802263441204B3
:1015DC00CB1A14439B46C200002033007B409A4632
:1015EC004B460F2B00D9EFE070499B00CB589F4620
:1015FC006F4B52469C462243E344002A00D095E0B0
:10160C00494602231943894600240220E5E70023BA
:10161C000024002552461B052343D2071343280000
:10162C00190005B0F0BCBB46B246A946A046F0BDB9
:10163C00002400255B4BEDE74B462343984600D135
:10164C0089E0002C00D1E0E1200001F007FB010053
:10165C0002000B391D235B1A49461000D94008388B
:10166C0084400B004D4623439846854051483C032B
:10167C00831A9B460023994600937B005046240B0B
:10168C005B0DFF0F002B97D15246224355D0002CF7
:10169C0000D1CAE1200001F0E1FA02000B3A1D234F
:1016AC0001009B1A52460839DA408C4014435246CA
:1016BC008A40414B58449B46834400208DE74B465F
:1016CC002343984640D108239946063B0025834680
:1016DC00009369E7B246009B022BA9D0032B00D1E3
:1016EC0011E2012B93D0354A5A44002A00DC3CE12C
:1016FC006B0700D0A7E1ED084346DB0106D5424657
:10170C002F4B1A4090468022D2005A442D4B9A42BD
:10171C008EDC4346520558075C020543240B530DDF
:10172C0078E7BA46A04615000090D4E74A46032352
:10173C001A439146032052464FE749460123194369
:10174C0089460024012048E70C239946093BA04612
:10175C008346009328E70423994600239B460133D4
:10176C000025009320E7002380249A4600250D4B8A
:10177C0024034FE7802341461B03194208D01C4227
:10178C0006D11C432403BA461500064B240B41E733
:10179C008024434624031C432403B246014B240BF0
:1017AC0038E7C046FF07000001FCFFFF287A01085C
:1017BC0001F8FFFF0DFCFFFFF3030000FF03000027
:1017CC00FFFFFFFEFE070000444500D216E100D1EA
:1017DC0011E101235B429C462E0040460025E34468
:1017EC002302140E1C431B0C994623041F0C1202DB
:1017FC00494600920197FEF72BFD02007A430B0439
:10180C00310C804619438A420BD901235B429C461A
:10181C000919E0448C4204D88A4202D9831E9846A6
:10182C000919881A4946FEF713FD09048C46310440
:10183C006646019A090C4243030031438A4204D99B
:10184C000919013B8C4200D811E1891A4246009ECD
:10185C0012041A43330C1F00100C9046029313040D
:10186C003204160C32001B0C5A4303967B4346433E
:10187C007843170CBC469B1963449E4203D98026BF
:10188C007602B44660441E0C301816041B04360C49
:10189C009E19814200D29CE000D197E0AE1B091A40
:1018AC00B54280414042081A844200D111E14946B8
:1018BC00FEF7CEFC019A0B044243310C0500194390
:1018CC008A4207D90919013D8C4203D88A4201D9B1
:1018DC00851E0919881A4946FEF7BAFC09048C467C
:1018EC0031046646019A090C4243030031438A4293
:1018FC0007D90919013B8C4203D88A4201D9831EAE
:10190C000919039E891A32002D041D43029F2B04D2
:10191C001B0C5A437B439C46280C4643130CB44483
:10192C00634478439E4203D980267602B4466044D1
:10193C001E0C12041B04120C30189B18814206D387
:10194C0002D001231D43CEE6002B00D1CBE661185B
:10195C006E1EA14200D2A4E0814200D2C9E000D1A7
:10196C00D9E03500EDE701256D420121891A3829AE
:10197C0000DD4CE61F2900DC7FE01F235B429A1A36
:10198C004346D340202904D04446654A5A449440E7
:10199C0025436A1E954107222B43150000241D4048
:1019AC001A4200D1A1E00F2200241A40042A00D1CF
:1019BC0098E01A1D9A429B415B42E41813002202E4
:1019CC0000D48FE001230024002523E6B54200D388
:1019DC0064E743465A1E009B9C4665441F009D428B
:1019EC009B415B421B19C9188C423AD2884263D87E
:1019FC0060D0904652E7AA4200D9EAE64346DE0799
:101A0C0058086B081E43ED07EAE6484601F026F934
:101A1C0001000200153120321C2900DC1AE64B466D
:101A2C00083883400025984620E601F017F903009A
:101A3C001A00153220301C2A00DC30E65446083BD4
:101A4C0000229C4035E60F232B40042B00D152E69C
:101A5C0005235B42AB429B4104355B42ED08984445
:101A6C004AE68C42C5D1AF42C0D9904616E78A42AD
:101A7C0000D8EAE6831E0919E7E62A4A28005A44E8
:101A8C00434695409340C8406A1E954144460343E3
:101A9C002B43CC405A0792D00F221A40042A88D1EB
:101AAC008DE73500814200D04BE7009A934200D07D
:101ABC0047E718E6AE429CD902235B429C46009B4A
:101ACC00E0449C4665449D429B415B421B19C918EE
:101ADC00E4E6154A5A44002A00DC44E701230025B9
:101AEC00984409E665076402240BDB081D430023B8
:101AFC0090E5009E023D7200B242BF417F423C190C
:101B0C0009190092CEE78024434624031C43240386
:101B1C00064B240B7EE5009A9A42EAD33500C4E7C3
:101B2C003E0400001E040000FF030000FF0700003D
:101B3C00F0B54F464646D646944691461A03120BCC
:101B4C00184DC0B54C000F0392465A000600804653
:101B5C003F0B0120640DC90F520DDB0FAC420AD0B4
:101B6C00AA4203D0944201D157450DD0E0BCBA46ED
:101B7C00B146A846F0BD3D003543F7D1A242F5D1A0
:101B8C00524665462A43F1D10120C845EED199420F
:101B9C0006D0002CEAD13E433000461EB041E5E7AA
:101BAC000020E3E7FF070000F0B54E4645465746D8
:101BBC00DE4604001800E0B516001B031B0B324D6B
:101BCC000F034A0099464300A446B0463F0B520D02
:101BDC00C90F5B0DC00FAA4229D0AB4218D0002A06
:101BEC002AD13C43A34665426541002B02D14C46A9
:101BFC00264327D0002D15D1814228D0022001394F
:101C0C0008400138F0BCBB46B246A946A046F0BD20
:101C1C004D462E432FD1002AEED13C4365426541FF
:101C2C00002DE9D00028EDD101204042EAE73D002B
:101C3C00254320D19342EBD0002BDDD14C462643DB
:101C4C00DAD1DBE75B460020002BDBD0D6E79A42EB
:101C5C000ADCE7DB4F45D1D810D000204F45D1D25C
:101C6C000029E1D00800CDE743425841022340420D
:101C7C0018400138C6E702204042C3E7C445BDD82E
:101C8C000020C445BED2EBE7FF070000F0B54E467E
:101C9C0045465746DE4604001800E0B516001B0307
:101CAC001B0B314D0F034A0099464300A446B04626
:101CBC003F0B520DC90F5B0DC00FAA4211D0AB42A6
:101CCC0014D0002A2FD13C43A34665426541002B1A
:101CDC0014D14C46264311D15B460020002B17D063
:101CEC0010E03D00254312D193421CD14D462E43AA
:101CFC000DD1002A04D13C4365426541002D0DD124
:101D0C00814216D0022001390840013800E002203F
:101D1C00F0BCBB46B246A946A046F0BD0028F7D1A0
:101D2C0001204042F4E7002BEAD14C462643E7D190
:101D3C00E8E79A4206DD43425841022340421840EC
:101D4C000138E5E79A42E9DB4F45DBD806D00020A5
:101D5C004F45DDD20029E3D00800D9E7C445D1D8DE
:101D6C000020C445D4D2F5E7FF070000F0B5574674
:101D7C004E464546DE46E0B598460C034B00060041
:101D8C00924687B0240B5B0DCF0F002B6CD0DD4A35
:101D9C00934200D186E0420FE400144380221204E7
:101DAC001443D94AC50094466344009300239946D2
:101DBC009B46434642461E03D20F5B00504690465C
:101DCC00360B5B0D00D178E0CE4A93421DD0CE4944
:101DDC00420F8C4600996344F6008C4616438022D1
:101DEC009C44120463461643C200002000930099E1
:101DFC00434601318C4649467B4001930F2900D95B
:101E0C007EE0C24B890059588F465246009B3243A4
:101E1C0000D056E1BB4900268C46634449460093EA
:101E2C000223194389460220E1E74346019334001B
:101E3C00150083465B46022B5ED0032B00D1F3E1E9
:101E4C00012B00D018E1002200240025019B120573
:101E5C002243DB071A432800110007B0F0BCBB4635
:101E6C00B246A946A046F0BD2500054300D141E18C
:101E7C00002C00D1ADE1200000F0F0FE01000200CA
:101E8C000B391D2310005B1A3100350008388440D3
:101E9C00D94085400C439E48831A009300239946F1
:101EAC009B4686E70500254300D01CE108220093E1
:101EBC000223002491469B467BE75246324300D1D5
:101ECC000AE1002E00D176E1300000F0C7FE0200DE
:101EDC000B3A1D2301009B1A52460839DA408E40FA
:101EEC00164352468A40009B8949181A03008C46B7
:101EFC006344002000937AE700240025814AA5E77B
:101F0C002F0C2D042D0C2B00110C1204120C53430E
:101F1C009846130028007B4399464843484483461F
:101F2C0040460B00000C824658467B4350440293BB
:101F3C00814506D99A4680235B029946CA4453468A
:101F4C000293030C9B4643461B0400041B0C98464F
:101F5C00030043440493330C99462B003604360C8F
:101F6C007343984633007B439A464B465D435F432D
:101F7C0043465544180C4019824503D980235B0213
:101F8C009A465744050CEB19059343461D042D0C3A
:101F9C0000044019250C2404240C270057436A43E1
:101FAC0090462A003B0C9A464A43614341445144B3
:101FBC008344884503D980235B02984642443F04FE
:101FCC000B0C3F0C0904C919270098464B46774364
:101FDC005C436E435D433B0C9946A4194C4442440C
:101FEC000395A64204D980235B0298464544039589
:101FFC00029B3F045B441E008342804123049846AD
:10200C00059B3F0C4744984676188E4289414744BD
:10201C0040423D18A846934649428A46C3449F42D3
:10202C00BF4180458041039BDA4498465346404269
:10203C007F420743240C934592418A4589413F19BD
:10204C00DC0D049B75021D43681E854153465242AC
:10205C0049420A43BF184744F60D7F0235435A02E2
:10206C003C431543FB0100D4C1E001216A080D403B
:10207C001543E2071543640826496144002956DDDF
:10208C006B0709D00F222A40042A05D02A1DAA4228
:10209C00AD416D4264191500E30104D580211E4A3F
:1020AC00C900144061441D4A914200DD24E76207D7
:1020BC00ED08640249051543240B4A0DC6E6019749
:1020CC00B8E6104A0320944663444A46009303231F
:1020DC001A43914652468AE64946012319438946DA
:1020EC000026012083E60C22009303230500914671
:1020FC009B465EE60423994600230093013300249B
:10210C009B4656E6FF07000001FCFFFF687A0108BA
:10211C000DFCFFFFFF030000FFFFFFFEFE070000AA
:10212C00002380240025444A019324038EE60120D9
:10213C00401A382800DD86E61F285BDD1F222300AD
:10214C005242511ACB401900202803D03B4A62441A
:10215C00944025436A1E95412A000A4307210D002D
:10216C000024154011425BD00F210024114004299A
:10217C0053D0111D914292415242A4180A002302DD
:10218C004BD501220024002560E680231B031C4252
:10219C0009D01E4207D133431C0343461500240BC0
:1021AC00254A019352E68022120314432403224A47
:1021BC00240B01974AE600F051FD03001A0015327A
:1021CC0020301C2A00DC84E65646083B00229E4048
:1021DC0089E600F043FD01000200153120321C2974
:1021EC0000DC4EE6340008380025844053E6009BA2
:1021FC009C4641E71249220061442E008D408A40E2
:10220C00C640691E8D4132432A43C4405307B6D0A1
:10221C000F2111400429ACD1B1E765076402240BEE
:10222C00D2081543002211E6802212031443240322
:10223C00014A240B0AE6C046FF0700003E040000DA
:10224C001E040000F8B557464E464546DE460400CF
:10225C00E0B51F0010000B03620F4E00CD0F5B0AA0
:10226C0039031343490AE200440F2143C24C9146FF
:10227C009246C0007A008046760D520DFF0FA242A6
:10228C0000D1B4E001246740BB46BD4200D188E0D8
:10229C00B41AA446002C00DCB2E0002A00D1C5E040
:1022AC00B54A964200D18BE2802212041143624659
:1022BC00382A00DDA1E11F2A00DD16E220270C00E0
:1022CC00BF1ABC400200A0466446B840E2404446F7
:1022DC0014430200501E82416046C14022435B1AE7
:1022EC0049468C1AA145924152429B1A9846434644
:1022FC001B0200D417E143465B025B0A9846434637
:10230C00002B00D16CE1404600F0A8FC0200083A1A
:10231C00202120004346891A9340C840944003432F
:10232C00964200DD57E1961B711C1F2900DDCBE1A5
:10233C00202218002600521A94409040CE40CB40E8
:10234C00621E94413043984600260443630709D02B
:10235C000F232340042B05D0231DA342A441644228
:10236C00A0441C0043461B0200D4DFE0824B013624
:10237C009E4200D1FBE04246804BE4081A40130019
:10238C00710552075B0222431B0B490D0905ED0732
:10239C00194329431000F0BCBB46B246A946A046DF
:1023AC00F8BDB41AA446002C58DD002A00D19EE0DA
:1023BC00714A964200D13BE18022120411436246DD
:1023CC00382A00DDC1E01F2A00DCBBE10C00203AFA
:1023DC00D44022006446202C04D040273F1BB94037
:1023EC00084380464446611E8C411443B1E00C0006
:1023FC0004432AD0BB46BD422DD0614CA446B44404
:10240C006446002C5CD0941BA446002E00D015E131
:10241C004D461D4300D1C3E1651E012C00D10CE2D9
:10242C00554EB44200D1F8E1AC460EE10A0002432D
:10243C0000D136E12200013A012C00D1C6E14E4C0C
:10244C00A44500D1F4E0944631E701246740BB4633
:10245C00BD4200D01CE74A4CA446B4446446002C50
:10246C0000D1CFE0941BA446002E00D15CE1424E7B
:10247C00B24200D1ECE18026360433436446382C5A
:10248C0000DDB3E11F2C00DD38E22026361B1C00DA
:10249C00B4404F46A0466446E74044463C434F4652
:1024AC00B7403E00771EBE4134436646F340C91820
:1024BC00241884429B415B429846160088444EE0A7
:1024CC00304A741C144200D0D6E04A461A43002EFF
:1024DC0000D05BE1002A00D1A5E10A00024300D044
:1024EC00BBE14A465907D2080A43DB0827E00A0039
:1024FC00024300D174E12200013A012C05D01E4C9C
:10250C00A44500D194E0944659E74844484592418B
:10251C005B189846040052429044434602261B0224
:10252C0000D5C4E0013E630700D011E74346B44632
:10253C005907E2080A43DB080F498C4540D0614635
:10254C001B0349051B0B490D20E701430C00611EC1
:10255C008C414C444C4592415242904698444346DF
:10256C001B02E0D5044B01369E4200D09FE03100A7
:10257C00002300220AE7C046FF070000FFFF7FFF91
:10258C0001F8FFFFFE070000002A00D160E10A00FD
:10259C0002434DD04A465C07D20822438024DB0814
:1025AC002403234207D0CE08264204D15D463300D3
:1025BC00C20849070A43510FD200D20849070A43FF
:1025CC001100194300D1C8E1802109030B431B03FF
:1025DC00D5491B0BDAE6D549B61A0B409846B5E639
:1025EC00200000F03BFB020018321F2A00DC8FE6B3
:1025FC00230008388340002492E608430200501E52
:10260C0082416DE6CA4C721C224200D0ADE04A46B3
:10261C001A43002EB8D1002A00D158E10A00024317
:10262C0000D059E14A465907D2080A43DB0886E72D
:10263C004A465907D2080A43DB08C1E7BA4DAA42F9
:10264C0000D11EE180252D042B436446382C5DDC23
:10265C001F2C00DDD0E0202567462D1B4E461C00AC
:10266C00FE40AC4034434E46AE403500FB406E1E3F
:10267C00B541C91A2C434EE04A46141AA145924161
:10268C00524290465F1A3A004746D21B90461202BD
:10269C0000D58BE04246224300D030E600230025D3
:1026AC004DE74A465907D2080A43DB0844E742463D
:1026BC009E4B61081A401300012214400C43DA07A8
:1026CC005B089846144341E61A001F3EF240160080
:1026DC00202903D04022511A8B401C43621E944186
:1026EC0000233443984600261DE70C00203AD440C2
:1026FC0022006446202C04D040273F1BB9400843DD
:10270C0080464446611E8C412243E9E54C462343F6
:10271C001C00631E9C41041BA0429B415B42CB1AD4
:10272C0098465D461600E2E54E461E4300D1AEE0EB
:10273C00661E012C00D1FDE07B4FBC4200D107E1AD
:10274C00B4469BE664462022121B0C009440070002
:10275C009040A0466446421E90416246E740444683
:10276C00D1403C4304435B18F3E66F4CA24200D1CA
:10277C00D5E048445B184845894149425B18DC0761
:10278C0040085B08984616000443CCE6002A00D0AB
:10279C0082E00A00024340D1802300251B0313E78B
:1027AC004B07C2081A435D46CB08C5E64A46841A55
:1027BC00A0429241CB1A52429B1A98465D469EE526
:1027CC004A465907D2080A43DB08F9E64A46141A66
:1027DC00A14592415B1A52429B1A9846012686E506
:1027EC004A465907D2080A43DB08A5E64C46234360
:1027FC001C00631E9C415BE665461E00203DEE40BE
:10280C00202C05D040252D1BAB404C461C43A2462A
:10281C005446631E9C4134437DE74B07C2081A4360
:10282C005D46CB08CCE60A00024300D136E74B07E5
:10283C00C2081A435D46CB0881E64A46841AA04278
:10284C009241CB1A52429B1A98465D4601264EE5A0
:10285C004B07C2081A43CB08B2E64A46141AA145E4
:10286C0092415F1A5242BA1A904612026BD54A46EE
:10287C00841AA0429241CB1A52429B1A98465D464A
:10288C0064E54B07C2081A435D46CB0898E64B0734
:10289C00C2081A43CB084FE60A00024390D04A46BE
:1028AC005C07D20814438022DB081203134208D0C1
:1028BC00CE08164205D1C0084907084304005D46FE
:1028CC003300610FE2004907D2080A4378E64B0750
:1028DC00C2081A43CB0832E648445B18484592417B
:1028EC00984652429044434604001B0200D41AE618
:1028FC0042460E4B01261A40904614E666461F00CF
:10290C00203EF740202C05D04026361BB3404C46C9
:10291C001C43A2465446631E9C413C43C8E511002F
:10292C000023002232E5C046FF070000FFFF7FFFB7
:10293C00FE0700004A461418844292415B189846E0
:10294C0052429044E9E54246224300D1A6E6EAE52C
:10295C004B07C2081A43CB0832E600220149130088
:10296C0014E5C046FF07000070B505000C480C03C9
:10297C00160049001A035B00240B490D120B5B0D6A
:10298C00814208D0064900208B4203D1324310000B
:10299C00421E904170BD01202C43FBD1F2E7C04692
:1029AC00FF0700000A0030B5134C53000903050063
:1029BC00090B00205B0DD20FA34204DD0F488342AC
:1029CC0002DD0F4BD01830BD8020400301430D4871
:1029DC00C01A1F2808DD0C48C31AD9400B005842F6
:1029EC00002AF0D11800EEE7084CC540A446634419
:1029FC0099400B002B43F2E7FE0300001D0400007E
:102A0C00FFFFFF7F3304000013040000EDFBFFFF0A
:102A1C0070B5002816D0C317C5185D40C40F280028
:102A2C0000F01CF9114A121A0A2816DC03002E00B9
:102A3C0015339E400B23181AC54053052D032D0B3F
:102A4C005B0D03E000240023002500261B052B430F
:102A5C00E40723433000190070BD0B388540530543
:102A6C002D0300262D0B5B0DF0E7C0461E04000065
:102A7C0010B5041E10D000F0F1F80F4B1B1A0A28E9
:102A8C0011DC0B222100121AD14015300A035B0510
:102A9C008440120B5B0D01E0002300221B05134345
:102AAC002000190010BD22000B3882405B05120378
:102ABC000024120B5B0DF1E71E04000070B54300FF
:102ACC004602C40FFE201B0E591C750A08420CD07E
:102ADC00E022920094466D07360B63441B0533438A
:102AEC00E40723432800190070BD002B14D1002DDE
:102AFC001BD0280000F0B2F80A281CDC0B232A009B
:102B0C001B1ADA40030015339D400E4B12031B1A9F
:102B1C005B05160B5B0DE1E7002D09D0320B80260F
:102B2C003603094B6D071643D8E700230026D5E77B
:102B3C000026054BD2E703002A000B3B9A400025E8
:102B4C00E3E7C04689030000FF07000002004B00CA
:102B5C00F0B508035B0D3D4ECC0F400A510F5F1CC6
:102B6C000843D50037420AD039495E18FE2E16DDCF
:102B7C00FF230021DB050B43E0071843F0BD002BBE
:102B8C0006D1284327D005218901490ADBB2F1E798
:102B9C000543EDD08021C903FF230143EAE7002E52
:102BAC001CDD920111004A1E9141C0006D0F0143C2
:102BBC0029434B0748D00F230B40042B00D0043182
:102BCC008023DB040B403FD0721CFE2ED0D0890139
:102BDC00490AD3B2CEE700230021CBE732001732EB
:102BEC0022DB80211E2209040843921B1F2A1DDDB3
:102BFC00022149428E1B0100F1400E00202A04D014
:102C0C00144A944663449840054329004D1EA9413B
:102C1C00314300264B07CED180200B00C00401228B
:102C2C0003400142D3D1AFE70023ACE70A498C46FD
:102C3C0029006344D1409D400A00290098404D1E54
:102C4C00A94101431143E4E733009DE7FE0700006F
:102C5C0080FCFFFFA2FCFFFF82FCFFFF1C21012375
:102C6C001B04984201D3000C10391B0A984201D363
:102C7C00000A08391B09984201D30009043902A241
:102C8C00105C40187047C0460403020201010101A8
:102C9C000000000000000000F0B583B007000D003C
:102CAC0016001C000BF00AF8002820D0BB00144AB8
:102CBC00985821000BF092F9002814D001230193AD
:102CCC0017E038000AF0FAFF012229000FF077FC18
:102CDC000190013502200DF0EBF80134E4B2A3B2FF
:102CEC00B342EED305E0002401230193F7E701235F
:102CFC0001930A200DF0DCF8019803B0F0BDC0463A
:102D0C001858002070B50124002501E00134E4B20C
:102D1C00084B1B78A3420AD3611E4900064BC91805
:102D2C00601C08F087FE192CF0D90A25EEE7280064
:102D3C0070BDC04630000020485C0020F0B583B068
:102D4C006B460022DA800026002508E0B3009B19B0
:102D5C005A00164B9B1800225A720136F6B2144BCD
:102D6C001B78B3421FD30124092CEFD828001C3048
:102D7C0080B26B46991D08F05DFE6B46D8889B7936
:102D8C009C460A4AB3009F197900511867460F55A3
:102D9C00671E010A9B1958001218D1550135ADB2A6
:102DAC000234E4B2E0E7002003B0F0BD38080020A4
:102DBC0030000020F0B583B06B460022DA8000248E
:102DCC0000250BE063001F49C9182800CB3080B2E6
:102DDC0008F030FE0135ADB20134E4B21A4B1B7869
:102DEC00A342EFD8002608E0B3009B195A00174BFA
:102DFC009B1800225A720136F6B2092E1FD80124F4
:102E0C00092CF1D82800993080B26B46991D08F036
:102E1C0011FE6B46D8889B799C460C4AB3009F19CF
:102E2C007900511867460F55671E010A9B19580007
:102E3C001218D1550135ADB20234E4B2E0E70020EE
:102E4C0003B0F0BDC4070020300000206007002054
:102E5C0070B584B00E21694400230B8003AA138043
:102E6C00E42008F0E7FD002800D075E00E236B4449
:102E7C001D780E216944E52008F0DCFD040003A94F
:102E8C00E62008F0D7FD0443A4B2002C00D065E086
:102E9C000E236B441E88360403AB1B88F6180E21D8
:102EAC006944E72008F0C6FD040003A9E82008F0F7
:102EBC00C1FD0443A4B2002C52D10E236B441C88D8
:102ECC00240403AB1B88E4180E216944E92008F0A4
:102EDC00B1FD002807D10E236B441B88190A2C4A1C
:102EEC0011702C4A13700E216944EA2008F0A2FDDF
:102EFC00002807D10E236B441B88190A264A11702F
:102F0C00264A13700E216944EB2008F093FD00282B
:102F1C0007D10E236B441B88190A214A1170214AD0
:102F2C0013701B4B1B78002B03D01A4A1278002A03
:102F3C0018D1194B1B78002B03D0184A1278002A91
:102F4C0017D1174B1B78002B03D0164A1278002A86
:102F5C0016D1002004B070BD00258AE700269EE73C
:102F6C000024B1E7009222003100280004F00EFC8E
:102F7C00DFE7009222003100280004F007FCE0E7B4
:102F8C00009222003100280004F000FCE1E7C0466A
:102F9C00DA0800205D070020DB0800205E07002017
:102FAC00DC0800205F07002010B582B08A206B4639
:102FBC00991D400008F03EFD002800D078E06B46DB
:102FCC009A1DDB881178564A11701B0A53708E209B
:102FDC006B46991D400008F02DFD002800D06EE0D6
:102FEC006B46DB88DA0B4E490A715B08CB801620E6
:102FFC006B46991DFF3008F01DFD002800D065E0E0
:10300C006B46DA88474B1A808B206B46991D400023
:10301C0008F010FD00285ED16B46DA88414B5A80CF
:10302C0018206B46991DFF3008F004FD002857D17D
:10303C006B469A1DDB8811783A4A11711B0A537141
:10304C008C206B46991D400008F0F4FC04001A20FB
:10305C0001A9FF3008F0EEFC0443A4B2002C46D1C9
:10306C006B4606331B8801AA1288120413432D4A9F
:10307C0093608D206B46991D400008F0DBFC002806
:10308C0043D16B469A1DDB881178264A11731B0AB3
:10309C0053731C206B46991DFF3008F0CBFC0028A5
:1030AC0039D16B469A791F4B9A76002002B010BD2D
:1030BC001D4A11781A4B197052785A7087E71A4AC0
:1030CC001179174B1971D288DA8090E7174B1A884F
:1030DC00144B1A8098E7154B5A88124B5A809FE76D
:1030EC00124A11790F4B197152795A71A8E7104B8A
:1030FC001B78002B04D00B4BE12252029A60B8E7EC
:10310C000A4B9A68074B9A60B3E7064B18225A731E
:10311C0000221A73BDE7054B9A7E024B9A76C4E7E0
:10312C0014570020945700200C000020140000209D
:10313C0018030020F0B589B01E236B4400221A80BE
:10314C00002401E00134E4B2032C5DD825003B35AA
:10315C00AD00ADB21E216944280008F06BFC0028BC
:10316C00F0D11E236B441B88180A190B621C914268
:10317C00E8D10F210F0007400142E3D0D600B2186E
:10318C00234EB61877703372681C80B21E236B44C2
:10319C00190008F04FFC6B46DB8B1A0AB270737186
:1031AC00A81C80B21E236B44190008F043FC6B462C
:1031BC00DB8B1A0AF270B3710335A8B21E236B4471
:1031CC00190008F037FC6B46DB8B1A0A3271F3716D
:1031DC00651CEDB27078290009F0A2F8317A4A0822
:1031EC00B37801200240014000200590F079049052
:1031FC00B07903907079029030790190F07800905A
:10320C00280009F0A5F99DE7002009B0F0BDC046E3
:10321C0060130020F0B5D6464F4680B583B03220FF
:10322C000FF052FF061E68D0364B1B78FE2B66D172
:10323C000027344C4AE02278F2540133DBB20134DB
:10324C00132BF8D9BA46BB00DB199B002E4A9946C2
:10325C009144711C142248460FF058FF142200218F
:10326C0030000FF05CFF1434002501942378FD2B03
:10327C0006D8312D04D8735501340135EDB2F4E77D
:10328C007319013B1B78002B01D00135EDB22800DE
:10329C000FF01AFF53469B0053449B001A4AD31855
:1032AC00D860002816D02A0031000FF02FFF174AE3
:1032BC001378013313702A00002130000FF02FFF18
:1032CC00019B1B78FE2B0FD10137FFB2042F0BD8BB
:1032DC000023B5E71422002148460FF020FF3000F0
:1032EC000FF0FCFE0E2003E030000FF0F7FE002084
:1032FC0003B0C0BCBA46B146F0BDFB20F8E7FF20D6
:10330C00F6E7C04600DC0108B0570020AF090020EA
:10331C0010B5FFF7F7FCFFF711FDFFF74BFDFFF7BB
:10332C0097FDFFF741FEFFF705FFFFF773FF10BD99
:10333C0070B50124002505E0601C08F02DFC0BE0A5
:10334C000134E4B2074B1B78A34209D3631E5B0024
:10335C00054A995A0029EFD1192CF1D90A25EFE722
:10336C00280070BD30000020485C0020F8B5002516
:10337C00002601E00135EDB2124B1B78AB421FD396
:10338C002F00AB005B195A000F4BD35C002BF1D014
:10339C000124092CEED8601EBA00D21951000A4B38
:1033AC005B18195C09021B5DC91889B230001C300E
:1033BC0080B208F0F1FB0136B6B20234E4B2E8E7B1
:1033CC000020F8BD3000002038080020F8B5DE469B
:1033DC0057464E464546E0B50F0016001C000AAB9A
:1033EC001B789B460BAB1B789A460CAB1B7899460B
:1033FC000DAB1D780EAB1B7898460100E42008F04D
:10340C00CBFB390A89B2E52008F0C6FBB9B2E6203D
:10341C0008F0C2FB310A89B2E72008F0BDFBB1B25B
:10342C00E82008F0B9FB24025C44A1B2E92008F0C2
:10343C00B3FB53461902494489B2EA2008F0ACFBAD
:10344C002D024544A9B2EB2008F0A6FB0020F0BCED
:10345C00BB46B246A946A046F8BD000010B51F4CAD
:10346C0063785B01217819438A20400008F094FBB3
:10347C002379DB030622A15E194389B28E2040001A
:10348C0008F08AFB164C21881620FF3008F084FBCC
:10349C0061888B20400008F07FFB63791B02217B45
:1034AC0019431820FF3008F077FB21898C2040004D
:1034BC0008F072FB61891A20FF3008F06DFB637B0A
:1034CC001B02217919438D20400008F065FBA17E79
:1034DC001C20FF3008F060FB002010BD14570020AA
:1034EC009457002070B5042200210E480FF017FEEF
:1034FC000124002505E0601C08F04EFB0BE00134B4
:10350C00E4B2094B1B78A34209D3631E5B00054A46
:10351C00995A0029EFD1192CF1D90A25EFE7280087
:10352C0070BDC046485C00203000002010B5074B31
:10353C001A68074B9A4200D110BD08F043FB0028D3
:10354C00FAD1024B024A1A60F6E7C046F07F00201F
:10355C00ADDEEFBE30B58FB004AB009307AB1222DB
:10356C006A4408A9012008F0B3FD03AC009405AB34
:10357C000E226A4406A9022008F0AAFD01230A9330
:10358C0000250B956B465B8A099309A908980DF0E9
:10359C003FFF0A9502230B932388099309A90598E9
:1035AC000DF036FF6B46598A002208980EF085F80C
:1035BC0005200AF041FA218805980EF077F8041ED0
:1035CC0003D0002420000FB030BD12236B441988A7
:1035DC00012208980EF071F805200AF02DFA03ABC1
:1035EC00198805980EF062F80128EBD10400E9E780
:1035FC0070B505000024002C01D0002070BD6300C4
:10360C001B199B00064AD31899682800FCF774FD17
:10361C00002802D00134E4B2EDE70134E0B2EDE76A
:10362C00F400002070B50400002501E00135EDB276
:10363C00052D25D818492000FCF75EFD002821D067
:10364C0016492000FCF758FD00281DD01449200015
:10365C00FCF752FD002819D012492000FCF74CFD54
:10366C00002815D010492000FCF746FD002811D089
:10367C000E492000FCF740FD0028D7D1062000E0C1
:10368C00002070BD0120FCE70220FAE70320F8E7D8
:10369C000420F6E70520F4E7A87A0108AC7A0108C3
:1036AC00B07A0108B47A0108B87A0108BC7A01082A
:1036BC00F0B5DE4657464E464546E0B583B000AF02
:1036CC00424B1B780733DB08DB006A46D31A9D4656
:1036DC006C4600233D4A1278934207D20022E254F2
:1036EC005D003B496A520133DBB2F3E70138012339
:1036FC002354012201E00132D2B2062A17D8C300AA
:10370C001B1A9B185B0033495B5A002BF3D0551ED8
:10371C000121A9400D002E4E41008C46895B2943A6
:10372C006546A953DB08013B0221E154E3E7022380
:10373C009B465E460136F3B29B4600239C46002214
:10374C002CE00131C9B2062926D8EB005B1B5B18B3
:10375C005B0020481B5A002BF3D0DB08013B7B603D
:10376C00E05C0028EDD10800013801268640B04607
:10377C00174881466800824648465646305A4646A7
:10378C0030434E46534698537B685846E054634644
:10379C000133DBB29C46D4E70132D2B20B4B1B781F
:1037AC009A4207D21500A15C5B46013B9942F3D1CA
:1037BC000121C8E76346002BBBD10020BD4603B0F6
:1037CC00F0BCBB46B246A946A046F0BD3000002076
:1037DC007C0600203400002070B504000B78002B10
:1037EC0003D105780023002002E0FF25FAE701331E
:1037FC00064A12789A4208DDE25CAA42F7D2CE5C05
:10380C00002EF4D1D8B21500F1E770BD30000020C5
:10381C00010000230120044A12789A4203DDCA5C9D
:10382C0010400133F7E7704730000020F0B583B04B
:10383C0005000E0001AB00221A800232002145481F
:10384C000FF06DFC2900013D0022434B5A55434BB0
:10385C005A55012000E00130062814DCEB005B1BFC
:10386C001B185B003E4A9B5A002BF4D0DB08B2B20B
:10387C009342F0D1731E384A0121D154354B1E703E
:10388C00C0B203B0F0BD012300E00133354A127819
:10389C009A4209DB9942F8D05A1E2F48FF248454CF
:1038AC002E4800248454F0E7002401A8FFF7B0FF51
:1038BC0000280CD101A92848FFF78EFF0130C4B2B3
:1038CC00B44204D0611E01AB01225A5403E0002221
:1038DC0023E00132D2B2062AE7D8CB005B1A9B1840
:1038EC005B001F481B5A002BF3D0DB08DBB2013BFB
:1038FC0001A8C05C0028ECD1174F785C0130C0B235
:10390C00FF5C8742E5D9144FF8541448C454E0E7DF
:10391C00531C10498C54DAB20400631E0F49C85C66
:10392C000028F5D1012200E00132062AA9DCEB00C7
:10393C005B1B9B185B000A495B5A002BF4D0DB081D
:10394C00711E054C615C0139024C615C8B42EBD100
:10395C00D0B296E75C580020D4080020D80800208C
:10396C00340000203000002070B5012407E0651EF3
:10397C002100FFF75BFF494B58550134E4B2022C90
:10398C0008D8474B1878A042F1D1631E434A002156
:10399C00D154F2E709F008FF09F0A6FF08F076F918
:1039AC0008F060FB07F038F909F0D2FF07F050FF80
:1039BC000AF000F808F0C8FB002811D1FFF7CAFD87
:1039CC00002841D0374B01221A7032200AF034F80B
:1039DC0006F0ACFB344BE12252029A60012411E058
:1039EC00FFF7A4FDBFF34F8F304B314ADA60BFF3C2
:1039FC004F8FC046FDE72C4B996820000AF0C2F9A6
:103A0C000134E4B2032CF6D9FFF782FC07F09EFEDA
:103A1C00234B1B78002B1DD180252D019024E40510
:103A2C000122290020000DF048FEFA2040000AF087
:103A3C0003F80022290020000DF03FFE03F09CFB50
:103A4C001C4B01221A7070BD322009F0F5FF06F0F4
:103A5C006DFBD9E780252D019024E4050122290076
:103A6C0020000DF02AFEFA20400009F0E5FF0022AC
:103A7C00290020000DF021FE642009F0DDFF012259
:103A8C00290020000DF019FE642009F0D5FF00225A
:103A9C00290020000DF011FED0E7C0466C06002076
:103AAC0084000020180300209457002000ED00E053
:103ABC000400FA051703002010B50CF0DBF906F032
:103ACC0077F9FFF751FF03F073FB0AF064FA10BDAE
:103ADC00F0B5C64600B582B00600574C574B2200D5
:103AEC0023CB23C2196811609B8893802000FCF7BC
:103AFC000DFB82B201235B42009333332100300073
:103B0C000AF0F0F8012413E04B4D22004C49280038
:103B1C0010F0BEF82800FCF7F9FA82B201235B42E0
:103B2C0000933333290030000AF0DCF80134E4B29E
:103B3C00032CE9D901235B4200933333032241491F
:103B4C0030000AF0CFF8002530E007231340D208EC
:103B5C003D49394810F09CF8374B98461800FCF753
:103B6C00D5FA82B201235B420093333341463000D5
:103B7C000AF0B8F80134E4B2032C0CD8FB00DB1BC0
:103B8C001B195B00314A9A5A002ADED130492A4867
:103B9C0010F07EF8E0E701235B42009333330222FE
:103BAC002C4930000AF09EF80135EDB22A4B1B78F7
:103BBC00AB4233D92F006A1C1F4C2849200010F04F
:103BCC0067F82000FCF7A2FA82B201235B42984608
:103BDC0000933333210030000AF084F8EB005B1BB8
:103BEC005B001A4A9B5A5900C91849001C4BC9184A
:103BFC000522200010F0A0F8434600933333052231
:103C0C00210030000AF06EF8434600933333012252
:103C1C00144930000AF066F80124ADE701235B4239
:103C2C00009333330122104930000AF05BF802B0E4
:103C3C0080BCB846F0BDC04664080020C07A0108BC
:103C4C00D47A0108F48A0108EC7A010834000020C7
:103C5C00E87A0108F87B010830000020DC7A0108C2
:103C6C0000820108D07A010854A70108F0B583B08E
:103C7C0006002C4C2C4B220023CB23C223CB23C27B
:103C8C001B6813602000FCF741FA82B201235B42EF
:103C9C0000933333210030000AF024F8012523E08F
:103CAC00204F23002A00214938000FF0F1FF380083
:103CBC00FCF72CFA82B201235B42009333333900B8
:103CCC0030000AF00FF80134E4B20A2C0AD86B1E4B
:103CDC005B00174A9A5A611E80231B020B41134248
:103CEC00F1D0DDE70135EDB2124B1B78AB4201D3BD
:103CFC000124EAE70B4C104B220023CB23C223CB2D
:103D0C0023C203CB03C22000FCF700FA82B20123CA
:103D1C005B42009333332100300009F0E3FF03B022
:103D2C00F0BDC04664080020F47A0108107B01083D
:103D3C00485C002030000020247B0108F0B5CE4602
:103D4C00474680B583B081460AF046FA0600002348
:103D5C000370924B1A78924C924920000FF098FF06
:103D6C00210030000FF0B4FF8F4B1A788F492000E0
:103D7C000FF08EFF210030000FF0AAFF06230093F6
:103D8C00043B00228A4920000FF082FF2100300002
:103D9C000FF09EFF874A884920000FF079FF210021
:103DAC0030000FF095FF854A854920000FF070FF19
:103DBC00210030000FF08CFF824B220023CB23C25A
:103DCC0019681160998891809B799371210030005A
:103DDC000FF07EFF01240DE0714B7B4A11681960D6
:103DEC009188998092799A716D4930000FF070FF2B
:103DFC000134E4B2032C38D8694D220073492800F1
:103E0C000FF046FF290030000FF062FF704B1B5D76
:103E1C00042BE9D89B006F4AD3589F4660496E4BE0
:103E2C000A0023CB23C203CB03C21B781370DBE73E
:103E3C005B4A6A4B23CB23C2D6E75949684B0A002D
:103E4C0023CB23C223CB23C21B881380CCE754493A
:103E5C00644B0A0023CB23C223CB23C21968116005
:103E6C00998891809B799371BEE74D495E4B0A000E
:103E7C0031CB31C231CB31C230000FF029FF0124DC
:103E8C000BE0474D2200594928000FF001FF290093
:103E9C0030000FF01DFF0134E4B2062C22D8651E51
:103EAC00EB005B1BDB00524A9B58002BE9D0EB006C
:103EBC005B1BDB004E4AD318586A06F077F90700F3
:103ECC00AD004C4BE85806F071F9354D00903B00B5
:103EDC002200494928000FF0DBFE290030000FF0CA
:103EEC00F7FED8E73000FCF711F9301803224349EC
:103EFC000FF00CF93000FCF709F930181D2240497D
:103F0C000FF004F93000FCF701F9050001240CE076
:103F1C00234B984622003B4918000FF0B9FE41464E
:103F2C0030000FF0D5FE0134E4B2032C0CD81B4B3F
:103F3C001B78013B5B00344A9A5A611E80231B029A
:103F4C000B411342EFD0E3E73000FCF7DFF82D0410
:103F5C002D0CA8420FD03000FCF7D8F830180322F3
:103F6C0026490FF0D3F84B46002B0AD103B0C0BC46
:103F7C00B946B046F0BD3018052224490FF0C6F8FA
:103F8C00E9E73000FCF7C2F882B201235B420093F0
:103F9C0033333100484609F0A5FEE7E784000020E2
:103FAC0064080020447B01086E060020607B010839
:103FBC007C7B01089C7B0108A87B0108C07B010865
:103FCC00CC7B0108E87B0108047C0108FC7B010820
:103FDC00B4080020007D01080C7C0108247C010839
:103FEC00307C01084C7C01086C7C0108847C010845
:103FFC00FC110020E80C0020A07C0108F87B0108D3
:10400C00D07C0108F07C0108485C0020F87C010899
:10401C0070B505002949FCF76FF800280AD028492B
:10402C002800FCF769F8002846D02E78232E04D0FF
:10403C00002418E0234B187870BD681C0FF019F899
:10404C00C0B2002803D0204B1B78834205D21D4BF5
:10405C001C78844203D06620EEE700B2ECE720B275
:10406C00EAE70134E4B2184B1B78A3420DD9A10046
:10407C0009194900154B59182800FCF73DF8002880
:10408C00EFD1002EEDD020B2D6E70026092E11D8A4
:10409C00B100891949000E4B59182800FCF72CF86F
:1040AC00002802D00136F6B2F0E73402FE2020439D
:1040BC0000B2C1E76420BFE7FF20BDE7147D010813
:1040CC00187D0108840000203000002038080020F2
:1040DC0060070020F8B504000E000025032D09DC54
:1040EC00AB002949C9183000FCF706F8002843D06A
:1040FC000135F3E70125254B1B78AB420BDDA900FD
:10410C0049194900224B59183000FBF7F5FF0028DC
:10411C0034D00135EFE70025092D0BDCA900491936
:10412C0049001C4B59183000FBF7E6FF002827D03C
:10413C000135F1E7184B194A1A60174B1D68002D11
:10414C000FD02B681F683800FBF7E0FF0200390026
:10415C0030000FF0E0FD002814D06A680E4B1A6096
:10416C00EBE7A00000194000094C201831000FF0BB
:10417C00CAFDFFF7FBF802E0062000E00720F8BDBF
:10418C000720FCE70820FAE7DC810108300000205A
:10419C003808002060070020B8080020100100201B
:1041AC00F8B504000E000025092D14DCA9004919EE
:1041BC004900344B59183000FBF79EFF002801D002
:1041CC000135F1E7013C0122AA402F496400635AF2
:1041DC0013436352F8BD0025032D09DCAB002B49BA
:1041EC00C9183000FBF788FF002845D00135F3E7EC
:1041FC000125274B1B78AB420BDDA900491949005F
:10420C00244B59183000FBF777FF002836D00135C6
:10421C00EFE7214B214A1A601F4B1D68002D20D05F
:10422C002B681F683800FBF771FF02003900300063
:10423C000FF071FD002823D06A68174B1A60EBE76A
:10424C00A80040194000101831000FF05CFD013C33
:10425C000122AA400C496400635A134363520020A4
:10426C00B8E7092DF3DCAB005B195B00054A9B5CDE
:10427C00002BE5D00135F4E70620ABE70720A9E7D2
:10428C000820A7E760070020C4070020DC81010894
:10429C003000002038080020BC080020100100204D
:1042AC0030B5002301E00133DBB21D2B0BD89A0093
:1042BC00064C12591207F6D1090440189D002851DA
:1042CC000133D8B230BD0020FCE7C0461C5700209B
:1042DC0030B583B01E200EF0F7FE04001E22002124
:1042EC000EF01DFF08490A7D013A8B7D487D098B34
:1042FC009200064D525901910090054920000FF093
:10430C00C7FC200003B030BD94570020C0820108C8
:10431C00EC81010800B585B00A00074B1978012320
:10432C000393023B02930193033300930B0003F0BE
:10433C00A3FD05B000BDC0468400002030B587B099
:10434C0005000C0000230493039302930193009344
:10435C00002200210020FFF739F86A1ED3009B1AB7
:10436C00DB00154A9A58002A07D0611ECB005B1A55
:10437C00DB0011495B58002B0FD1002A15D1621EAE
:10438C00D3009B1ADB000C4A9B58002B12D0200048
:10439C0007F008FA002007B030BD280007F002FA39
:1043AC00200007F0FFF90020F5E7280007F0FAF9E4
:1043BC000020F0E76820EEE7FC11002030B5002269
:1043CC0001E0237001328418835C002B07D0044970
:1043DC00CD5C032129400129F3D12033F1E730BD15
:1043EC0061AA0108F0B5CE46474680B589B00400F5
:1043FC00DB4B1D78052D00D115E2DA48AB005A19BC
:10440C0092000021115480184170023004220EF0E9
:10441C0086FE2378622B02D1A3782E2B56D0D24D58
:10442C00210028000FF06FFCD04E3100280010F056
:10443C00E1FA04003100002010F0DCFA0500310034
:10444C00002010F0D7FA0600002C00D1EFE120007C
:10445C00FFF7CEF8041E02D0002D00D1B5E1002DDF
:10446C0000D1E6E1002E00D1E5E13000FFF7C0F805
:10447C00002800D1BAE1BA4B1E78BA4AB300991998
:10448C00890004278F54991989005118CC70C87170
:10449C00B34C26782800FFF7C5F8B24AB3009B1935
:1044AC009B00D318587021788B005B189B00D31895
:1044BC005B78002B00D1C0E10131A94B19700026AB
:1044CC00300009B0C0BCB946B046F0BD6778303F8B
:1044DC00FFB2032F00D9A8E1A24AAB0059198900F9
:1044EC0001208854531800225A709F70E61C073222
:1044FC009F4930000FF00FFC002824D1AB005D1950
:10450C00AD00984B5D190523EB70FA00D219994B4D
:10451C009B181B7A012216001E401A4205D0002659
:10452C008F4A137801331370CAE7012305930023D4
:10453C00049303930293019300930022012138000A
:10454C0008F006F8ECE70E228B4930000FF0E3FB85
:10455C00002820D1AB005D19AD00824B5D190623FC
:10456C00EB70FA00D219834B9B181B7A02221600AF
:10457C001E401A4201D00026D2E7012305930023E6
:10458C0004930393029301930093013A00213800A2
:10459C0007F0DEFFC4E70C22784930000FF0BBFBBC
:1045AC0000287BD1FA00D219724B9B189E78002EF2
:1045BC000FD0FA00D2196F4B9B18DE78002E29D041
:1045CC00FA00D2196B4B9B181E79002E44D00C2686
:1045DC00A6E7644B9846AB005B199B004344092249
:1045EC00DA7020000F300EF03EFD5D4B1978C3B22F
:1045FC008A00521892004244137101220592002243
:10460C00049203920292019200920021380007F06A
:10461C009FFF85E7534B9846AB005B199B004344C7
:10462C000A22DA7020000F300EF01DFD4C4B1A7868
:10463C00C0B293009B189B0043441871012305934F
:10464C000023049303930293019300900022002112
:10465C00380007F07DFF63E7424B9846AB005B19CF
:10466C009B0043440B22DA7020000F300EF0FBFC51
:10467C003B4B1A78C0B293009B189B0043441871B3
:10468C000123059300230493039302930190009359
:10469C0000220021380007F05BFF41E70D2238496A
:1046AC0030000FF038FB002800D08CE0FA00D21953
:1046BC00304B9B185E79002E0FD0FA00D2192D4B7F
:1046CC009B189E79002E2AD0FA00D219294B9B18E0
:1046DC00DE79002E56D00D2622E7224B9846AB00F1
:1046EC005B199B0043440C22DA70200010300EF052
:1046FC00BAFC1B4B1A78C0B293009B189B00434426
:10470C0018710123059300230493039302900193E2
:10471C00009300220021380007F01AFF00E7114B2C
:10472C009846142399465D434544073BEB702000A3
:10473C0010300EF098FC0A4B1B78C0B24A4653431B
:10474C0043441871012305930021049103900291B5
:10475C00019100910B000A00380007F0F9FEDFE62A
:10476C00AF090020B057002014090020007C01087C
:10477C00288B010860130020DC820108EC82010800
:10478C00FC8201082E4B9846142399465D43454400
:10479C00063BEB70200010300EF065FC294B1B78AB
:1047AC00C0B24A4653434344187101230593049005
:1047BC00002103910291019100910B000A00380035
:1047CC0007F0C6FEACE60026AAE6002E00D046E6B0
:1047DC001C4D2B781A499A00D0188000023646548A
:1047EC000A18D47001332B70002669E6154B9846D5
:1047FC001A78134F9300991889000320C8557B1819
:10480C00DC7030000EF02AFCFEF7A0F9079043464E
:10481C001B789800C0188000C0190630042207A924
:10482C000EF074FC34E60E264AE6002648E66726AF
:10483C0046E6672644E6672642E6672640E6C0461B
:10484C00B0570020AF090020F8B50C00022817D093
:10485C00032803D001280FD00020F8BD354B1A785F
:10486C00013A93009B189B00334AD31801221A7407
:10487C0005F0F6FA0020F0E70800FFF7B3FDECE7CF
:10488C002C4B1D78013DAB005B199B002A4AD318B9
:10489C00DF68002F34D03800FBF738FC060020000E
:1048AC00FBF734FC3118023138000FF0A1F9224F1C
:1048BC00AB005D19AD007D19E8601E4D2A78013AF8
:1048CC0093009B189B00FB18D868731CC018210020
:1048DC000FF019FA2A78013A93009B189B00FF18E5
:1048EC00FB6813229A55134B1A78013A93009B18C4
:1048FC009B001149CB18DB68002B11D00020ACE7D2
:10490C000800FBF703FC01300EF0DEFBAB005D1979
:10491C00AD00094B5D19E86021000FF0F4F9E2E7F6
:10492C009000801880004018142200210EF0F7FB34
:10493C000E2092E7AF090020B0570020F0B5DE46FC
:10494C0057464E464546E0B589B082468946150025
:10495C001C00002305930522002106A80EF0DFFBA6
:10496C002EE1E91C0120FFF76FFF002806D1D34B85
:10497C0002221A700D232370B8460FE15222D0493F
:10498C0020000EF0C3FBCD4B00221A70B84605E197
:10499C00CA4B00221A70CB490320FFF755FF412266
:1049AC00C94920000EF0B2FBB846F7E029000220FE
:1049BC00FFF74AFF002804D10D23237000239846EB
:1049CC00ECE05222BE4920000EF0A0FB00239846DA
:1049DC00E4E0701C99229200210009F095FB8046BE
:1049EC00DCE02722B94920000EF090FB002398460A
:1049FC00D4E02522B64920000EF088FB002398460F
:104A0C00CCE002220021B3480EF089FB01362800CD
:104A1C00FBF77CFB070005A8FBF778FB3A1A013A79
:104A2C003100AD480FF088F92800FBF76FFB070049
:104A3C0005A8FBF76BFB3B1A9BB21722FF215846CC
:104A4C0003F0CAF9992292002100300009F05CFBB6
:104A5C0080462000FBF75AFB20181D229F490EF0C0
:104A6C0055FB9BE0029B1F12FBB29D4F03933B70C7
:104A7C000222002197480EF052FB721C0292280071
:104A8C00FBF744FB060005A8FBF740FB321A013A82
:104A9C00029991480FF050F92800FBF737FB0600FC
:104AAC0005A8FBF733FB331A9BB217220399584620
:104ABC0003F092F98B4B1B78013B5B008A4A9B5AA3
:104ACC003A781341DB0706D405AB22008749200056
:104ADC000FF0DEF862E0992292002100029809F0B2
:104AEC0013FB8046F0E72800FBF710FB804605A877
:104AFC00FBF70CFB43461A1A013A310076480FF0CB
:104B0C001BF92800FBF702FB060005A8FBF7FEFAD1
:104B1C00321A92B2013A92B21721380003F084F99A
:104B2C00029A734920000FF0B3F82378002B02D0BF
:104B3C004B46002B08D12000FBF7E8FA02000021BD
:104B4C0020000EF0ECFAA1E02000FBF7DFFA82B2B5
:104B5C000123009331332100504609F0C3F8EAE7F2
:104B6C00FA21890001200AF05FFD624B1B78002BB3
:104B7C0000D193E0604A138801331380029B22001A
:104B8C005E4920000FF084F80023984606E0992235
:104B9C0092002100280009F0B7FA80462378002BF8
:104BAC0002D04B46002B7CD12000FBF7AFFA020061
:104BBC00002120000EF0B3FA4346002B00D1ADE0EB
:104BCC002800FFF7FBFB3D4B1E78002E07D103227C
:104BDC004B4928000FF09FF8071E00D1C1E6002EAC
:104BEC0007D00622474928000FF095F8071E00D180
:104BFC00CEE6022E00D1D9E62E2128000FF075F852
:104C0C00061EC4D0033803223F490FF084F8002855
:104C1C00BDD073783D4AD35C5B07B8D4721B2900B6
:104C2C0005A80FF089F805A8FFF7F2F902902D4AB4
:104C3C0012789346904200D1CBE6642800D1D0E69E
:104C4C00662800D1D5E6FF2800D1DAE66B461F7A3C
:104C5C00FE2F00D106E7013606222D4930000FF059
:104C6C005AF8002800D03EE72A4B00221A7019216E
:104C7C00380003F0D9F8642009F092F9264B1A7821
:104C8C00184B18780023390005F0F4F9214B1B78E8
:104C9C00602B00D164E7002398467FE700239846F9
:104CAC007CE72000FBF732FA82B201235B420093CF
:104CBC0033332100504609F015F875E7DC09002064
:104CCC0010830108D87A01086C830108B4830108A9
:104CDC00DC830108B00600200808002004840108C9
:104CEC00AE09002084000020C407002024840108A1
:104CFC0058840108D0080020EC0F00207C840108A7
:104D0C000C83010864830108B083010861AA0108BF
:104D1C0050840108145700206E060020092200213F
:104D2C0005A80EF0FCF90C4B1B78002B02D14B465E
:104D3C00002B06D109B0F0BCBB46B246A946A04632
:104D4C00F0BD01235B4200933333382203495046B4
:104D5C0008F0C8FFEEE7C046DC0900209C8401087F
:104D6C0070B584B00F236B4400221A7001214942A4
:104D7C0001200AF059FC09F02FFA0500464B9A68FD
:104D8C00E1231B039A420FD0012401E00134E4B269
:104D9C00032C09D8414B1B78A342F7D0E12109031E
:104DAC00200008F0EFFFF1E73D4B1A8853009B18E9
:104DBC005B003C4A9B183C4A12783C4C374E31788D
:104DCC0000913B4920000EF063FFA42230780A23A7
:104DDC009200384908F0B6FF2000FBF797F982B231
:104DEC0030780A23210008F0ADFF00241CE02B4B87
:104DFC0018780A230222304908F0A4FF002C3DD079
:104E0C002E4C264B18782B0022000121FFF796FD23
:104E1C0021002B480EF077FF3222002120000EF0EB
:104E2C007EF900240AF0CAFE264B1B78012BF9D11F
:104E3C001A4B1878421E24498B5C6E46F373002380
:104E4C008B54204A13700A3301220F21694408F055
:104E5C0079FFF37B0D2BCAD00A2BE3D0082B12D091
:104E6C007F2B10D01A00203AD2B25E2ADAD8312C1D
:104E7C00D8DC124A1355013464B2D3E710490F48F9
:104E8C000EF041FFBCE7002CCCDD013C64B20B4BB7
:104E9C0000221A55C6E7C046945700206E06002023
:104EAC00860000200082010884000020B009002048
:104EBC00D884010804850108349D0108E00800200D
:104ECC007C090020770600205C0A002070B50C00DD
:104EDC001C4B1A78013A93009B189B001A4AD31862
:104EEC00DB68002B2CD0194B1B68002B14D0174BF4
:104EFC001E683378002B12D0132130000EF0F5FE13
:104F0C00051E11D0821B310020000EF015FF01355B
:104F1C000E4B1D60012070BD0C4B1860E7E70B4B6E
:104F2C0000221A600020F6E7310020000EF0EBFEA4
:104F3C002000FBF7EBF83618044B1E600120EAE763
:104F4C000020E8E7AF090020B0570020D809002066
:104F5C00F0B583B0040083001B189B00424A9B5C95
:104F6C00012B04D0032B13D0002003B0F0BD3E4A1C
:104F7C00800003199B00D3189978DA78CB005B1862
:104F8C003A495B5C9A4201D00020EEE70120ECE745
:104F9C00354E8500291889007118CA78013A5300DA
:104FAC009B189B00324A9B581F680631042201A8AB
:104FBC000EF0ACF82D19AD0075196B78062B45D891
:104FCC009B002C4AD3589F46391C0198FBF77AFA60
:104FDC000028CAD00120C8E7391C0198FBF778FAE1
:104FEC000028C2D00120C0E7391C0198FBF784FAD5
:104FFC0000282DD00021381CFBF764FA002829D09A
:10500C000020B2E7391C0198FBF76CFA0028ACD0F1
:10501C000120AAE7391C0198FBF778FA00281BD06D
:10502C000021381CFBF74EFA002817D000209CE713
:10503C00391C0198FBF746FA002811D10021381CC5
:10504C00FBF740FA00280DD000208EE700208CE7FB
:10505C0000208AE7012088E7002086E7012084E70A
:10506C00002082E7012080E7B05700206013002069
:10507C00F40000209887010870B509F0ADF806001F
:10508C0000241BE0194B18783300194A0021FFF754
:10509C0055FC3000FBF73AF80200002130000EF00E
:1050AC003EF8AB005B199B00124AD318D868104924
:1050BC00FFF70CFF0028E5D10134A4B20E4B1B788E
:1050CC00A34211D92500A3001B199B00094AD31830
:1050DC001B7C002BF0D0E0B2FFF73AFF0028EBD09E
:1050EC00064B20221A70DCE7002070BD6E060020F3
:1050FC0048090020B0570020AF09002014570020A9
:10510C00F0B583B00600140000250195009501AAA6
:10511C000121200009F064F80023C356702B17D02E
:10512C0068276A460221200009F05AF80DF0A1FF09
:10513C000400682F12D00100280008F023FE2B0079
:10514C002200094930000EF0A3FD002003B0F0BD91
:10515C0001300DF08EFFC5B20027E2E713220349A0
:10516C0030000DF0D3FFF0E7C8870108B4870108C1
:10517C0010B5044B1A681204120C03490EF088FD8A
:10518C00002010BDCCF7FF1FF087010810B582B0CE
:10519C0004001000002301930023009301AA0121B5
:1051AC0009F01EF80023C356323BDBB2012B07D9A2
:1051BC0015220B4920000DF0A9FF002002B010BDF4
:1051CC000DF057FFC0B2694607F09AFC0098FDF746
:1051DC0075FC02000B00034920000EF059FDECE7B2
:1051EC00348801081088010810B582B0040000232F
:1051FC0001930093694601A807F0C2FB01A92000A6
:10520C000EF081FD0098FDF759FC02000B000349DC
:10521C0020000EF03DFD002002B010BD4C880108AE
:10522C0010B582B00400002301930093694601A8D5
:10523C0007F0A6FB01A920000EF065FD0198FDF713
:10524C003DFC02000B00034920000EF021FD002064
:10525C0002B010BD7488010870B584B0060014004B
:10526C000023039302930023019303AA012120003E
:10527C0008F0B6FF050002AA0221200008F0B0FFDA
:10528C0004000023EB56323BDBB2012B07D915226D
:10529C00194930000DF03AFF002004B070BD280011
:1052AC000DF0E7FEC5B215492000FAF725FF0028DE
:1052BC0005D013492000FAF71FFF002816D10F4C18
:1052CC002100280007F002FD01AA2100280007F0A8
:1052DC002FFD01A930000EF016FD0198FBF752F9D5
:1052EC0082B2084930000EF0D3FCD5E712220649F1
:1052FC0030000DF00BFFCFE73488010898880108C7
:10530C009C880108A4880108B488010870B584B091
:10531C0005001000002303935E4B1A7802AB1A7041
:10532C0003AA012108F05CFF04005B49FAF7E4FED4
:10533C00002869D1594B1B78013B594AD65C012492
:10534C0014E02200574928000EF0A2FC2800FAF7BE
:10535C00DDFE82B2514B1878642300935A3B29002E
:10536C0008F0C0FC2FE00E000134E4B2032C54D83A
:10537C004A4B1B78A342F7D00EF0FCFB6B4618721D
:10538C00642300935A3B012202A9200008F0AAFCD6
:10539C00200008F093FC03689B8CDBB26A46127AFF
:1053AC009342CED02200404928000EF071FC280018
:1053BC00FAF7ACFE82B2394B1878642300935A3B4F
:1053CC00290008F08FFC5422384928000DF09EFE6D
:1053DC002800FAF79BFE82B2304B187864230093B6
:1053EC005A3B290008F07EFC2C4B1A78013A711CB0
:1053FC0053009B189B012E4AD3185B5C002BB2D137
:10540C0001200AF055FDEFE70023E356702B07D07F
:10541C000F22284928000DF079FE002004B070BD41
:10542C00601C0DF026FE0400C6B2731EDBB2022B0C
:10543C000BD96623662B27D0062BEED1FF222240F8
:10544C00194928000EF024FCE7E70EF093FB6B469D
:10545C00187264230093323B012202A9300008F039
:10546C0041FC002008F02AFC03689B8CDBB26A46E6
:10547C00127A934201D00623DCE7FF22224009492D
:10548C0028000EF005FCC8E71B220B4928000DF084
:10549C003DFEC2E778890108187D01086E060020E0
:1054AC00A00C0020C8880108E4880108F8880108CD
:1054BC00600A0020688901084C890108F0B5C646CD
:1054CC0000B582B005001400002600270196009656
:1054DC0001AA0121200008F083FE0023C356702B83
:1054EC0019D0672398466A460221200008F078FEFE
:1054FC000023C356702B15D06720002820D06728B6
:10550C0025D01922154928000DF000FE002002B00C
:10551C0080BCB846F0BD01300DF0ABFDC6B2002327
:10552C009846E0E701300DF0A4FDC7B24346002BCE
:10553C0001D06720E3E739003000FEF7FFFEDCE71F
:10554C003B003200064928000EF0A2FBDEE70F22DA
:10555C00044928000DF0DAFDD8E7C0469C89010803
:10556C007C89010868890108F0B5C64600B582B08F
:10557C0005001400002600270196009601AA0121BF
:10558C00200008F02DFE0023C356702B19D0672382
:10559C0098466A460221200008F022FE0023C356DA
:1055AC00702B15D06720002820D0672825D0172213
:1055BC00154928000DF0AAFD002002B080BCB846A9
:1055CC00F0BD01300DF055FDC6B200239846E0E762
:1055DC0001300DF04EFDC7B24346002B01D06720C1
:1055EC00E3E739003000FEF795FEDCE73B003200C4
:1055FC00064928000EF04CFBDEE70F220449280078
:10560C000DF084FDD8E7C046DC890108B889010893
:10561C0068890108F0B5D6464F464646C0B582B0FB
:10562C00050010000023019301AA012108F0D8FD08
:10563C000DF019FDC4B2002C4BD0304B1B78A3429B
:10564C0001D2FF2346E0FF260640013E2C4B994633
:10565C00B30098469B199B00002292464A4651463D
:10566C00995443469F19BF004F447970B81C0422CB
:10567C000DF055FD53463B74F8680DF02FFD534665
:10568C00FB6013E0631E9800C01880008018A60011
:10569C003619B600B618142231000DF037FD14225D
:1056AC00002130000DF03BFD0134E4B2134B1B78AC
:1056BC00A34207D9A3001B199B00114A9B5C002B2A
:1056CC00F2D0DFE7013B0D4A137004F0C9FB002355
:1056DC0000E0FF23002B0BD136220A4928000DF0E5
:1056EC0015FD002002B0E0BCBA46B146A846F0BD9C
:1056FC002322054928000DF009FDF2E7AF0900202F
:10570C00B0570020F48901082C8A010810B582B02A
:10571C00040010000023019301AA012108F060FD90
:10572C000DF0A1FCC3B2002B03D00F4A12789A42A1
:10573C0007D223220D4920000DF0E8FC002002B016
:10574C0010BDFF2318400138830018188000084B47
:10575C0018180023037404F083FB3522054920003C
:10576C000DF0D4FCEAE7C046AF0900202C8A0108F2
:10577C00B0570020508A010810B582B00400100008
:10578C000023019301AA012108F02AFD0DF06BFC06
:10579C00C3B2002B03D00F4A12789A4207D22322AD
:1057AC000D4920000DF0B2FC002002B010BDFF230B
:1057BC0018400138830018188000084B1818012372
:1057CC00037404F04DFB3822054920000DF09EFCBB
:1057DC00EAE7C046AF0900202C8A0108B057002028
:1057EC00888A0108F0B5D6464F464646C0B58AB001
:1057FC00050006AA7B4B13CB13C21B8813807A4B74
:10580C00187801235B42009333333722774908F031
:10581C0069FA002601239A46A5E0B3009B199B0068
:10582C00D3181A7CD3009B1A06AA9446634452469A
:10583C006F4928000EF02CFAA2E0A3001B199B0064
:10584C006C4AD318DB780B2B14D8092B35D2052BCB
:10585C0025D0062B00D09DE0A3001B199B00654AA8
:10586C00D2189378D26800922A00634928000EF06F
:10587C000FFA8FE00C3BDBB2022B00D98AE0A200BE
:10588C00121993005B4AD21893781179D26801925D
:10589C0000912A00594928000EF0FAF97AE0A30089
:1058AC001B199B00534AD2189378D26800922A0095
:1058BC00534928000EF0ECF96CE0A2001219930089
:1058CC004C4AD21893781179D268019200912A002F
:1058DC004C4928000EF0DCF95CE0A3001B199B007E
:1058EC00444A984690444346991D042205A80DF05D
:1058FC000DFC4346DA78013A5B78013B5900CB1832
:10590C0041498846984453009B189B003F4AD31842
:10591C009B6899460598FDF7D1F802900391434690
:10592C0000934B462A003A4928000EF0B1F931E0B9
:10593C002800FAF7EBFB28180C2236490DF0E6FB91
:10594C002800FAF7E3FB82B2274B187801235B425D
:10595C0000933333290008F0C5F957460137FBB2E1
:10596C009A460136F6B22C4B1B78B3422DD9340033
:10597C00B3009B199B001F4A9B5C002B00D04CE78B
:10598C00A3001B199B001B4A9B5C012B00D154E705
:10599C00032BA2D0A3001B199B00164AD318D8685E
:1059AC001E49FFF793FA0028C2D01C4F3B002A0077
:1059BC001B4928000EF06CF93800FAF7A7FB02001F
:1059CC00002138000DF0ABFBE4E7B52215492800A7
:1059DC000DF09CFB00200AB0E0BCBA46B146A846CC
:1059EC00F0BDC046D87901086E060020C08A0108B7
:1059FC00F88A0108B0570020188B0108488B010861
:105A0C00048B0108308B01080CA20108F400002063
:105A1C00648B01087C8B0108AF090020E009002091
:105A2C00748B0108888B010810B504000AF054FA35
:105A3C0003041B0C1A4A94466344082B2AD89B0077
:105A4C00184AD3589F46184A184920000EF020F9DE
:105A5C000AF03CFA030B2200154920000EF018F94D
:105A6C00002010BD134A114920000EF011F9EFE788
:105A7C00114A0E4920000EF00BF9E9E70F4A0B49C9
:105A8C0020000EF005F9E3E70D4A084920000EF05E
:105A9C00FFF8DDE70B4A054920000EF0F9F8D7E7CF
:105AAC00C0FBFFFFB08C0108408C01084C8C010836
:105ABC00988C0108608C01086C8C0108788C0108AA
:105ACC00848C0108908C010870B505000E220E49DB
